{
	"ethereum/contracts/Campaign.sol": {
		"Campaign": {
			"abi": [
				{
					"inputs": [
						{
							"internalType": "uint256",
							"name": "minimum",
							"type": "uint256"
						},
						{
							"internalType": "address",
							"name": "creator",
							"type": "address"
						}
					],
					"stateMutability": "nonpayable",
					"type": "constructor"
				},
				{
					"inputs": [
						{
							"internalType": "uint256",
							"name": "index",
							"type": "uint256"
						}
					],
					"name": "approveRequest",
					"outputs": [],
					"stateMutability": "nonpayable",
					"type": "function"
				},
				{
					"inputs": [
						{
							"internalType": "address",
							"name": "",
							"type": "address"
						}
					],
					"name": "approvers",
					"outputs": [
						{
							"internalType": "bool",
							"name": "",
							"type": "bool"
						}
					],
					"stateMutability": "view",
					"type": "function"
				},
				{
					"inputs": [],
					"name": "contribute",
					"outputs": [],
					"stateMutability": "payable",
					"type": "function"
				},
				{
					"inputs": [
						{
							"internalType": "string",
							"name": "d",
							"type": "string"
						},
						{
							"internalType": "uint256",
							"name": "v",
							"type": "uint256"
						},
						{
							"internalType": "address",
							"name": "r",
							"type": "address"
						}
					],
					"name": "createRequest",
					"outputs": [],
					"stateMutability": "nonpayable",
					"type": "function"
				},
				{
					"inputs": [
						{
							"internalType": "uint256",
							"name": "index",
							"type": "uint256"
						}
					],
					"name": "finalizeRequest",
					"outputs": [],
					"stateMutability": "payable",
					"type": "function"
				},
				{
					"inputs": [],
					"name": "manager",
					"outputs": [
						{
							"internalType": "address",
							"name": "",
							"type": "address"
						}
					],
					"stateMutability": "view",
					"type": "function"
				},
				{
					"inputs": [],
					"name": "minimumContribution",
					"outputs": [
						{
							"internalType": "uint256",
							"name": "",
							"type": "uint256"
						}
					],
					"stateMutability": "view",
					"type": "function"
				},
				{
					"inputs": [
						{
							"internalType": "uint256",
							"name": "",
							"type": "uint256"
						}
					],
					"name": "requests",
					"outputs": [
						{
							"internalType": "string",
							"name": "description",
							"type": "string"
						},
						{
							"internalType": "uint256",
							"name": "value",
							"type": "uint256"
						},
						{
							"internalType": "address",
							"name": "recipient",
							"type": "address"
						},
						{
							"internalType": "bool",
							"name": "complete",
							"type": "bool"
						},
						{
							"internalType": "uint256",
							"name": "approvalCount",
							"type": "uint256"
						}
					],
					"stateMutability": "view",
					"type": "function"
				}
			],
			"devdoc": {
				"kind": "dev",
				"methods": {},
				"version": 1
			},
			"evm": {
				"assembly": "    /* \"ethereum/contracts/Campaign.sol\":390:2182  contract Campaign{... */\n  mstore(0x40, 0x80)\n    /* \"ethereum/contracts/Campaign.sol\":807:808  0 */\n  0x00\n    /* \"ethereum/contracts/Campaign.sol\":791:808  uint requestNum=0 */\n  0x03\n  sstore\n    /* \"ethereum/contracts/Campaign.sol\":889:890  0 */\n  0x00\n    /* \"ethereum/contracts/Campaign.sol\":862:890  uint totalApproversCount = 0 */\n  0x05\n  sstore\n    /* \"ethereum/contracts/Campaign.sol\":902:1016  constructor(uint minimum,address creator){... */\n  callvalue\n  dup1\n  iszero\n  tag_1\n  jumpi\n  0x00\n  dup1\n  revert\ntag_1:\n  pop\n  mload(0x40)\n  sub(codesize, bytecodeSize)\n  dup1\n  bytecodeSize\n  dup4\n  codecopy\n  dup2\n  dup2\n  add\n  0x40\n  mstore\n  dup2\n  add\n  swap1\n  tag_2\n  swap2\n  swap1\n  tag_3\n  jump\t// in\ntag_2:\n    /* \"ethereum/contracts/Campaign.sol\":963:970  creator */\n  dup1\n    /* \"ethereum/contracts/Campaign.sol\":953:960  manager */\n  0x00\n  dup1\n    /* \"ethereum/contracts/Campaign.sol\":953:970  manager = creator */\n  0x0100\n  exp\n  dup2\n  sload\n  dup2\n  0xffffffffffffffffffffffffffffffffffffffff\n  mul\n  not\n  and\n  swap1\n  dup4\n  0xffffffffffffffffffffffffffffffffffffffff\n  and\n  mul\n  or\n  swap1\n  sstore\n  pop\n    /* \"ethereum/contracts/Campaign.sol\":1002:1009  minimum */\n  dup2\n    /* \"ethereum/contracts/Campaign.sol\":980:999  minimumContribution */\n  0x01\n    /* \"ethereum/contracts/Campaign.sol\":980:1009  minimumContribution = minimum */\n  dup2\n  swap1\n  sstore\n  pop\n    /* \"ethereum/contracts/Campaign.sol\":902:1016  constructor(uint minimum,address creator){... */\n  pop\n  pop\n    /* \"ethereum/contracts/Campaign.sol\":390:2182  contract Campaign{... */\n  jump(tag_6)\n    /* \"#utility.yul\":88:205   */\ntag_8:\n    /* \"#utility.yul\":197:198   */\n  0x00\n    /* \"#utility.yul\":194:195   */\n  dup1\n    /* \"#utility.yul\":187:199   */\n  revert\n    /* \"#utility.yul\":334:411   */\ntag_10:\n    /* \"#utility.yul\":371:378   */\n  0x00\n    /* \"#utility.yul\":400:405   */\n  dup2\n    /* \"#utility.yul\":389:405   */\n  swap1\n  pop\n    /* \"#utility.yul\":334:411   */\n  swap2\n  swap1\n  pop\n  jump\t// out\n    /* \"#utility.yul\":417:539   */\ntag_11:\n    /* \"#utility.yul\":490:514   */\n  tag_23\n    /* \"#utility.yul\":508:513   */\n  dup2\n    /* \"#utility.yul\":490:514   */\n  tag_10\n  jump\t// in\ntag_23:\n    /* \"#utility.yul\":483:488   */\n  dup2\n    /* \"#utility.yul\":480:515   */\n  eq\n    /* \"#utility.yul\":470:533   */\n  tag_24\n  jumpi\n    /* \"#utility.yul\":529:530   */\n  0x00\n    /* \"#utility.yul\":526:527   */\n  dup1\n    /* \"#utility.yul\":519:531   */\n  revert\n    /* \"#utility.yul\":470:533   */\ntag_24:\n    /* \"#utility.yul\":417:539   */\n  pop\n  jump\t// out\n    /* \"#utility.yul\":545:688   */\ntag_12:\n    /* \"#utility.yul\":602:607   */\n  0x00\n    /* \"#utility.yul\":633:639   */\n  dup2\n    /* \"#utility.yul\":627:640   */\n  mload\n    /* \"#utility.yul\":618:640   */\n  swap1\n  pop\n    /* \"#utility.yul\":649:682   */\n  tag_26\n    /* \"#utility.yul\":676:681   */\n  dup2\n    /* \"#utility.yul\":649:682   */\n  tag_11\n  jump\t// in\ntag_26:\n    /* \"#utility.yul\":545:688   */\n  swap3\n  swap2\n  pop\n  pop\n  jump\t// out\n    /* \"#utility.yul\":694:820   */\ntag_13:\n    /* \"#utility.yul\":731:738   */\n  0x00\n    /* \"#utility.yul\":771:813   */\n  0xffffffffffffffffffffffffffffffffffffffff\n    /* \"#utility.yul\":764:769   */\n  dup3\n    /* \"#utility.yul\":760:814   */\n  and\n    /* \"#utility.yul\":749:814   */\n  swap1\n  pop\n    /* \"#utility.yul\":694:820   */\n  swap2\n  swap1\n  pop\n  jump\t// out\n    /* \"#utility.yul\":826:922   */\ntag_14:\n    /* \"#utility.yul\":863:870   */\n  0x00\n    /* \"#utility.yul\":892:916   */\n  tag_29\n    /* \"#utility.yul\":910:915   */\n  dup3\n    /* \"#utility.yul\":892:916   */\n  tag_13\n  jump\t// in\ntag_29:\n    /* \"#utility.yul\":881:916   */\n  swap1\n  pop\n    /* \"#utility.yul\":826:922   */\n  swap2\n  swap1\n  pop\n  jump\t// out\n    /* \"#utility.yul\":928:1050   */\ntag_15:\n    /* \"#utility.yul\":1001:1025   */\n  tag_31\n    /* \"#utility.yul\":1019:1024   */\n  dup2\n    /* \"#utility.yul\":1001:1025   */\n  tag_14\n  jump\t// in\ntag_31:\n    /* \"#utility.yul\":994:999   */\n  dup2\n    /* \"#utility.yul\":991:1026   */\n  eq\n    /* \"#utility.yul\":981:1044   */\n  tag_32\n  jumpi\n    /* \"#utility.yul\":1040:1041   */\n  0x00\n    /* \"#utility.yul\":1037:1038   */\n  dup1\n    /* \"#utility.yul\":1030:1042   */\n  revert\n    /* \"#utility.yul\":981:1044   */\ntag_32:\n    /* \"#utility.yul\":928:1050   */\n  pop\n  jump\t// out\n    /* \"#utility.yul\":1056:1199   */\ntag_16:\n    /* \"#utility.yul\":1113:1118   */\n  0x00\n    /* \"#utility.yul\":1144:1150   */\n  dup2\n    /* \"#utility.yul\":1138:1151   */\n  mload\n    /* \"#utility.yul\":1129:1151   */\n  swap1\n  pop\n    /* \"#utility.yul\":1160:1193   */\n  tag_34\n    /* \"#utility.yul\":1187:1192   */\n  dup2\n    /* \"#utility.yul\":1160:1193   */\n  tag_15\n  jump\t// in\ntag_34:\n    /* \"#utility.yul\":1056:1199   */\n  swap3\n  swap2\n  pop\n  pop\n  jump\t// out\n    /* \"#utility.yul\":1205:1712   */\ntag_3:\n    /* \"#utility.yul\":1284:1290   */\n  0x00\n    /* \"#utility.yul\":1292:1298   */\n  dup1\n    /* \"#utility.yul\":1341:1343   */\n  0x40\n    /* \"#utility.yul\":1329:1338   */\n  dup4\n    /* \"#utility.yul\":1320:1327   */\n  dup6\n    /* \"#utility.yul\":1316:1339   */\n  sub\n    /* \"#utility.yul\":1312:1344   */\n  slt\n    /* \"#utility.yul\":1309:1428   */\n  iszero\n  tag_36\n  jumpi\n    /* \"#utility.yul\":1347:1426   */\n  tag_37\n  tag_8\n  jump\t// in\ntag_37:\n    /* \"#utility.yul\":1309:1428   */\ntag_36:\n    /* \"#utility.yul\":1467:1468   */\n  0x00\n    /* \"#utility.yul\":1492:1556   */\n  tag_38\n    /* \"#utility.yul\":1548:1555   */\n  dup6\n    /* \"#utility.yul\":1539:1545   */\n  dup3\n    /* \"#utility.yul\":1528:1537   */\n  dup7\n    /* \"#utility.yul\":1524:1546   */\n  add\n    /* \"#utility.yul\":1492:1556   */\n  tag_12\n  jump\t// in\ntag_38:\n    /* \"#utility.yul\":1482:1556   */\n  swap3\n  pop\n    /* \"#utility.yul\":1438:1566   */\n  pop\n    /* \"#utility.yul\":1605:1607   */\n  0x20\n    /* \"#utility.yul\":1631:1695   */\n  tag_39\n    /* \"#utility.yul\":1687:1694   */\n  dup6\n    /* \"#utility.yul\":1678:1684   */\n  dup3\n    /* \"#utility.yul\":1667:1676   */\n  dup7\n    /* \"#utility.yul\":1663:1685   */\n  add\n    /* \"#utility.yul\":1631:1695   */\n  tag_16\n  jump\t// in\ntag_39:\n    /* \"#utility.yul\":1621:1695   */\n  swap2\n  pop\n    /* \"#utility.yul\":1576:1705   */\n  pop\n    /* \"#utility.yul\":1205:1712   */\n  swap3\n  pop\n  swap3\n  swap1\n  pop\n  jump\t// out\n    /* \"ethereum/contracts/Campaign.sol\":390:2182  contract Campaign{... */\ntag_6:\n  dataSize(sub_0)\n  dup1\n  dataOffset(sub_0)\n  0x00\n  codecopy\n  0x00\n  return\nstop\n\nsub_0: assembly {\n        /* \"ethereum/contracts/Campaign.sol\":390:2182  contract Campaign{... */\n      mstore(0x40, 0x80)\n      jumpi(tag_1, lt(calldatasize, 0x04))\n      shr(0xe0, calldataload(0x00))\n      dup1\n      0x8a9cfd55\n      gt\n      tag_10\n      jumpi\n      dup1\n      0x8a9cfd55\n      eq\n      tag_6\n      jumpi\n      dup1\n      0x937e09b1\n      eq\n      tag_7\n      jumpi\n      dup1\n      0xd7bb99ba\n      eq\n      tag_8\n      jumpi\n      dup1\n      0xd7d1bbdb\n      eq\n      tag_9\n      jumpi\n      jump(tag_1)\n    tag_10:\n      dup1\n      0x03441006\n      eq\n      tag_2\n      jumpi\n      dup1\n      0x0a144391\n      eq\n      tag_3\n      jumpi\n      dup1\n      0x481c6a75\n      eq\n      tag_4\n      jumpi\n      dup1\n      0x81d12c58\n      eq\n      tag_5\n      jumpi\n    tag_1:\n      0x00\n      dup1\n      revert\n        /* \"ethereum/contracts/Campaign.sol\":1884:2175  function finalizeRequest(uint index) public payable isManager{... */\n    tag_2:\n      tag_11\n      0x04\n      dup1\n      calldatasize\n      sub\n      dup2\n      add\n      swap1\n      tag_12\n      swap2\n      swap1\n      tag_13\n      jump\t// in\n    tag_12:\n      tag_14\n      jump\t// in\n    tag_11:\n      stop\n        /* \"ethereum/contracts/Campaign.sol\":744:785  mapping(address => bool) public approvers */\n    tag_3:\n      callvalue\n      dup1\n      iszero\n      tag_15\n      jumpi\n      0x00\n      dup1\n      revert\n    tag_15:\n      pop\n      tag_16\n      0x04\n      dup1\n      calldatasize\n      sub\n      dup2\n      add\n      swap1\n      tag_17\n      swap2\n      swap1\n      tag_18\n      jump\t// in\n    tag_17:\n      tag_19\n      jump\t// in\n    tag_16:\n      mload(0x40)\n      tag_20\n      swap2\n      swap1\n      tag_21\n      jump\t// in\n    tag_20:\n      mload(0x40)\n      dup1\n      swap2\n      sub\n      swap1\n      return\n        /* \"ethereum/contracts/Campaign.sol\":679:701  address public manager */\n    tag_4:\n      callvalue\n      dup1\n      iszero\n      tag_22\n      jumpi\n      0x00\n      dup1\n      revert\n    tag_22:\n      pop\n      tag_23\n      tag_24\n      jump\t// in\n    tag_23:\n      mload(0x40)\n      tag_25\n      swap2\n      swap1\n      tag_26\n      jump\t// in\n    tag_25:\n      mload(0x40)\n      dup1\n      swap2\n      sub\n      swap1\n      return\n        /* \"ethereum/contracts/Campaign.sol\":814:854  mapping(uint => Request) public requests */\n    tag_5:\n      callvalue\n      dup1\n      iszero\n      tag_27\n      jumpi\n      0x00\n      dup1\n      revert\n    tag_27:\n      pop\n      tag_28\n      0x04\n      dup1\n      calldatasize\n      sub\n      dup2\n      add\n      swap1\n      tag_29\n      swap2\n      swap1\n      tag_13\n      jump\t// in\n    tag_29:\n      tag_30\n      jump\t// in\n    tag_28:\n      mload(0x40)\n      tag_31\n      swap6\n      swap5\n      swap4\n      swap3\n      swap2\n      swap1\n      tag_32\n      jump\t// in\n    tag_31:\n      mload(0x40)\n      dup1\n      swap2\n      sub\n      swap1\n      return\n        /* \"ethereum/contracts/Campaign.sol\":1272:1546  function createRequest(string memory d, uint v, address r) public isManager{... */\n    tag_6:\n      callvalue\n      dup1\n      iszero\n      tag_33\n      jumpi\n      0x00\n      dup1\n      revert\n    tag_33:\n      pop\n      tag_34\n      0x04\n      dup1\n      calldatasize\n      sub\n      dup2\n      add\n      swap1\n      tag_35\n      swap2\n      swap1\n      tag_36\n      jump\t// in\n    tag_35:\n      tag_37\n      jump\t// in\n    tag_34:\n      stop\n        /* \"ethereum/contracts/Campaign.sol\":707:738  uint public minimumContribution */\n    tag_7:\n      callvalue\n      dup1\n      iszero\n      tag_38\n      jumpi\n      0x00\n      dup1\n      revert\n    tag_38:\n      pop\n      tag_39\n      tag_40\n      jump\t// in\n    tag_39:\n      mload(0x40)\n      tag_41\n      swap2\n      swap1\n      tag_42\n      jump\t// in\n    tag_41:\n      mload(0x40)\n      dup1\n      swap2\n      sub\n      swap1\n      return\n        /* \"ethereum/contracts/Campaign.sol\":1104:1266  function contribute() public payable{... */\n    tag_8:\n      tag_43\n      tag_44\n      jump\t// in\n    tag_43:\n      stop\n        /* \"ethereum/contracts/Campaign.sol\":1552:1878  function approveRequest(uint index) public{... */\n    tag_9:\n      callvalue\n      dup1\n      iszero\n      tag_45\n      jumpi\n      0x00\n      dup1\n      revert\n    tag_45:\n      pop\n      tag_46\n      0x04\n      dup1\n      calldatasize\n      sub\n      dup2\n      add\n      swap1\n      tag_47\n      swap2\n      swap1\n      tag_13\n      jump\t// in\n    tag_47:\n      tag_48\n      jump\t// in\n    tag_46:\n      stop\n        /* \"ethereum/contracts/Campaign.sol\":1884:2175  function finalizeRequest(uint index) public payable isManager{... */\n    tag_14:\n        /* \"ethereum/contracts/Campaign.sol\":1072:1079  manager */\n      0x00\n      dup1\n      sload\n      swap1\n      0x0100\n      exp\n      swap1\n      div\n      0xffffffffffffffffffffffffffffffffffffffff\n      and\n        /* \"ethereum/contracts/Campaign.sol\":1060:1079  msg.sender==manager */\n      0xffffffffffffffffffffffffffffffffffffffff\n      and\n        /* \"ethereum/contracts/Campaign.sol\":1060:1070  msg.sender */\n      caller\n        /* \"ethereum/contracts/Campaign.sol\":1060:1079  msg.sender==manager */\n      0xffffffffffffffffffffffffffffffffffffffff\n      and\n      eq\n        /* \"ethereum/contracts/Campaign.sol\":1052:1080  require(msg.sender==manager) */\n      tag_50\n      jumpi\n      0x00\n      dup1\n      revert\n    tag_50:\n        /* \"ethereum/contracts/Campaign.sol\":1955:1974  Request storage req */\n      0x00\n        /* \"ethereum/contracts/Campaign.sol\":1977:1985  requests */\n      0x04\n        /* \"ethereum/contracts/Campaign.sol\":1977:1992  requests[index] */\n      0x00\n        /* \"ethereum/contracts/Campaign.sol\":1986:1991  index */\n      dup4\n        /* \"ethereum/contracts/Campaign.sol\":1977:1992  requests[index] */\n      dup2\n      mstore\n      0x20\n      add\n      swap1\n      dup2\n      mstore\n      0x20\n      add\n      0x00\n      keccak256\n        /* \"ethereum/contracts/Campaign.sol\":1955:1992  Request storage req = requests[index] */\n      swap1\n      pop\n        /* \"ethereum/contracts/Campaign.sol\":2012:2015  req */\n      dup1\n        /* \"ethereum/contracts/Campaign.sol\":2012:2024  req.complete */\n      0x02\n      add\n      0x14\n      swap1\n      sload\n      swap1\n      0x0100\n      exp\n      swap1\n      div\n      0xff\n      and\n        /* \"ethereum/contracts/Campaign.sol\":2011:2024  !req.complete */\n      iszero\n        /* \"ethereum/contracts/Campaign.sol\":2003:2025  require(!req.complete) */\n      tag_52\n      jumpi\n      0x00\n      dup1\n      revert\n    tag_52:\n        /* \"ethereum/contracts/Campaign.sol\":2084:2085  2 */\n      0x02\n        /* \"ethereum/contracts/Campaign.sol\":2064:2083  totalApproversCount */\n      sload(0x05)\n        /* \"ethereum/contracts/Campaign.sol\":2064:2085  totalApproversCount/2 */\n      tag_53\n      swap2\n      swap1\n      tag_54\n      jump\t// in\n    tag_53:\n        /* \"ethereum/contracts/Campaign.sol\":2043:2046  req */\n      dup2\n        /* \"ethereum/contracts/Campaign.sol\":2043:2060  req.approvalCount */\n      0x03\n      add\n      sload\n        /* \"ethereum/contracts/Campaign.sol\":2043:2086  req.approvalCount > (totalApproversCount/2) */\n      gt\n        /* \"ethereum/contracts/Campaign.sol\":2035:2087  require(req.approvalCount > (totalApproversCount/2)) */\n      tag_55\n      jumpi\n      0x00\n      dup1\n      revert\n    tag_55:\n        /* \"ethereum/contracts/Campaign.sol\":2106:2109  req */\n      dup1\n        /* \"ethereum/contracts/Campaign.sol\":2106:2119  req.recipient */\n      0x02\n      add\n      0x00\n      swap1\n      sload\n      swap1\n      0x0100\n      exp\n      swap1\n      div\n      0xffffffffffffffffffffffffffffffffffffffff\n      and\n        /* \"ethereum/contracts/Campaign.sol\":2098:2129  payable(req.recipient).transfer */\n      0xffffffffffffffffffffffffffffffffffffffff\n      and\n        /* \"ethereum/contracts/Campaign.sol\":2098:2140  payable(req.recipient).transfer(req.value) */\n      0x08fc\n        /* \"ethereum/contracts/Campaign.sol\":2130:2133  req */\n      dup3\n        /* \"ethereum/contracts/Campaign.sol\":2130:2139  req.value */\n      0x01\n      add\n      sload\n        /* \"ethereum/contracts/Campaign.sol\":2098:2140  payable(req.recipient).transfer(req.value) */\n      swap1\n      dup2\n      iszero\n      mul\n      swap1\n      mload(0x40)\n      0x00\n      mload(0x40)\n      dup1\n      dup4\n      sub\n      dup2\n      dup6\n      dup9\n      dup9\n      call\n      swap4\n      pop\n      pop\n      pop\n      pop\n      iszero\n      dup1\n      iszero\n      tag_57\n      jumpi\n      returndatasize\n      0x00\n      dup1\n      returndatacopy\n      revert(0x00, returndatasize)\n    tag_57:\n      pop\n        /* \"ethereum/contracts/Campaign.sol\":2164:2168  true */\n      0x01\n        /* \"ethereum/contracts/Campaign.sol\":2150:2168  req.complete==true */\n      iszero\n      iszero\n        /* \"ethereum/contracts/Campaign.sol\":2150:2153  req */\n      dup2\n        /* \"ethereum/contracts/Campaign.sol\":2150:2162  req.complete */\n      0x02\n      add\n      0x14\n      swap1\n      sload\n      swap1\n      0x0100\n      exp\n      swap1\n      pop\n      pop\n        /* \"ethereum/contracts/Campaign.sol\":2150:2168  req.complete==true */\n      pop\n        /* \"ethereum/contracts/Campaign.sol\":1945:2175  {... */\n      pop\n        /* \"ethereum/contracts/Campaign.sol\":1884:2175  function finalizeRequest(uint index) public payable isManager{... */\n      pop\n      jump\t// out\n        /* \"ethereum/contracts/Campaign.sol\":744:785  mapping(address => bool) public approvers */\n    tag_19:\n      mstore(0x20, 0x02)\n      dup1\n      0x00\n      mstore\n      keccak256(0x00, 0x40)\n      0x00\n      swap2\n      pop\n      sload\n      swap1\n      0x0100\n      exp\n      swap1\n      div\n      0xff\n      and\n      dup2\n      jump\t// out\n        /* \"ethereum/contracts/Campaign.sol\":679:701  address public manager */\n    tag_24:\n      0x00\n      dup1\n      sload\n      swap1\n      0x0100\n      exp\n      swap1\n      div\n      0xffffffffffffffffffffffffffffffffffffffff\n      and\n      dup2\n      jump\t// out\n        /* \"ethereum/contracts/Campaign.sol\":814:854  mapping(uint => Request) public requests */\n    tag_30:\n      mstore(0x20, 0x04)\n      dup1\n      0x00\n      mstore\n      keccak256(0x00, 0x40)\n      0x00\n      swap2\n      pop\n      swap1\n      pop\n      dup1\n      0x00\n      add\n      dup1\n      sload\n      tag_58\n      swap1\n      tag_59\n      jump\t// in\n    tag_58:\n      dup1\n      0x1f\n      add\n      0x20\n      dup1\n      swap2\n      div\n      mul\n      0x20\n      add\n      mload(0x40)\n      swap1\n      dup2\n      add\n      0x40\n      mstore\n      dup1\n      swap3\n      swap2\n      swap1\n      dup2\n      dup2\n      mstore\n      0x20\n      add\n      dup3\n      dup1\n      sload\n      tag_60\n      swap1\n      tag_59\n      jump\t// in\n    tag_60:\n      dup1\n      iszero\n      tag_61\n      jumpi\n      dup1\n      0x1f\n      lt\n      tag_62\n      jumpi\n      0x0100\n      dup1\n      dup4\n      sload\n      div\n      mul\n      dup4\n      mstore\n      swap2\n      0x20\n      add\n      swap2\n      jump(tag_61)\n    tag_62:\n      dup3\n      add\n      swap2\n      swap1\n      0x00\n      mstore\n      keccak256(0x00, 0x20)\n      swap1\n    tag_63:\n      dup2\n      sload\n      dup2\n      mstore\n      swap1\n      0x01\n      add\n      swap1\n      0x20\n      add\n      dup1\n      dup4\n      gt\n      tag_63\n      jumpi\n      dup3\n      swap1\n      sub\n      0x1f\n      and\n      dup3\n      add\n      swap2\n    tag_61:\n      pop\n      pop\n      pop\n      pop\n      pop\n      swap1\n      dup1\n      0x01\n      add\n      sload\n      swap1\n      dup1\n      0x02\n      add\n      0x00\n      swap1\n      sload\n      swap1\n      0x0100\n      exp\n      swap1\n      div\n      0xffffffffffffffffffffffffffffffffffffffff\n      and\n      swap1\n      dup1\n      0x02\n      add\n      0x14\n      swap1\n      sload\n      swap1\n      0x0100\n      exp\n      swap1\n      div\n      0xff\n      and\n      swap1\n      dup1\n      0x03\n      add\n      sload\n      swap1\n      pop\n      dup6\n      jump\t// out\n        /* \"ethereum/contracts/Campaign.sol\":1272:1546  function createRequest(string memory d, uint v, address r) public isManager{... */\n    tag_37:\n        /* \"ethereum/contracts/Campaign.sol\":1072:1079  manager */\n      0x00\n      dup1\n      sload\n      swap1\n      0x0100\n      exp\n      swap1\n      div\n      0xffffffffffffffffffffffffffffffffffffffff\n      and\n        /* \"ethereum/contracts/Campaign.sol\":1060:1079  msg.sender==manager */\n      0xffffffffffffffffffffffffffffffffffffffff\n      and\n        /* \"ethereum/contracts/Campaign.sol\":1060:1070  msg.sender */\n      caller\n        /* \"ethereum/contracts/Campaign.sol\":1060:1079  msg.sender==manager */\n      0xffffffffffffffffffffffffffffffffffffffff\n      and\n      eq\n        /* \"ethereum/contracts/Campaign.sol\":1052:1080  require(msg.sender==manager) */\n      tag_65\n      jumpi\n      0x00\n      dup1\n      revert\n    tag_65:\n        /* \"ethereum/contracts/Campaign.sol\":1357:1376  Request storage req */\n      0x00\n        /* \"ethereum/contracts/Campaign.sol\":1379:1387  requests */\n      0x04\n        /* \"ethereum/contracts/Campaign.sol\":1379:1401  requests[requestNum++] */\n      0x00\n        /* \"ethereum/contracts/Campaign.sol\":1388:1398  requestNum */\n      0x03\n      0x00\n        /* \"ethereum/contracts/Campaign.sol\":1388:1400  requestNum++ */\n      dup2\n      sload\n      dup1\n      swap3\n      swap2\n      swap1\n      tag_67\n      swap1\n      tag_68\n      jump\t// in\n    tag_67:\n      swap2\n      swap1\n      pop\n      sstore\n        /* \"ethereum/contracts/Campaign.sol\":1379:1401  requests[requestNum++] */\n      dup2\n      mstore\n      0x20\n      add\n      swap1\n      dup2\n      mstore\n      0x20\n      add\n      0x00\n      keccak256\n        /* \"ethereum/contracts/Campaign.sol\":1357:1401  Request storage req = requests[requestNum++] */\n      swap1\n      pop\n        /* \"ethereum/contracts/Campaign.sol\":1427:1428  d */\n      dup4\n        /* \"ethereum/contracts/Campaign.sol\":1411:1414  req */\n      dup2\n        /* \"ethereum/contracts/Campaign.sol\":1411:1426  req.description */\n      0x00\n      add\n        /* \"ethereum/contracts/Campaign.sol\":1411:1428  req.description=d */\n      swap1\n      dup2\n      tag_69\n      swap2\n      swap1\n      tag_70\n      jump\t// in\n    tag_69:\n      pop\n        /* \"ethereum/contracts/Campaign.sol\":1450:1451  v */\n      dup3\n        /* \"ethereum/contracts/Campaign.sol\":1438:1441  req */\n      dup2\n        /* \"ethereum/contracts/Campaign.sol\":1438:1447  req.value */\n      0x01\n      add\n        /* \"ethereum/contracts/Campaign.sol\":1438:1451  req.value = v */\n      dup2\n      swap1\n      sstore\n      pop\n        /* \"ethereum/contracts/Campaign.sol\":1477:1478  r */\n      dup2\n        /* \"ethereum/contracts/Campaign.sol\":1461:1464  req */\n      dup2\n        /* \"ethereum/contracts/Campaign.sol\":1461:1474  req.recipient */\n      0x02\n      add\n      0x00\n        /* \"ethereum/contracts/Campaign.sol\":1461:1478  req.recipient = r */\n      0x0100\n      exp\n      dup2\n      sload\n      dup2\n      0xffffffffffffffffffffffffffffffffffffffff\n      mul\n      not\n      and\n      swap1\n      dup4\n      0xffffffffffffffffffffffffffffffffffffffff\n      and\n      mul\n      or\n      swap1\n      sstore\n      pop\n        /* \"ethereum/contracts/Campaign.sol\":1503:1508  false */\n      0x00\n        /* \"ethereum/contracts/Campaign.sol\":1488:1491  req */\n      dup2\n        /* \"ethereum/contracts/Campaign.sol\":1488:1500  req.complete */\n      0x02\n      add\n      0x14\n        /* \"ethereum/contracts/Campaign.sol\":1488:1508  req.complete = false */\n      0x0100\n      exp\n      dup2\n      sload\n      dup2\n      0xff\n      mul\n      not\n      and\n      swap1\n      dup4\n      iszero\n      iszero\n      mul\n      or\n      swap1\n      sstore\n      pop\n        /* \"ethereum/contracts/Campaign.sol\":1538:1539  0 */\n      0x00\n        /* \"ethereum/contracts/Campaign.sol\":1518:1521  req */\n      dup2\n        /* \"ethereum/contracts/Campaign.sol\":1518:1535  req.approvalCount */\n      0x03\n      add\n        /* \"ethereum/contracts/Campaign.sol\":1518:1539  req.approvalCount = 0 */\n      dup2\n      swap1\n      sstore\n      pop\n        /* \"ethereum/contracts/Campaign.sol\":1347:1546  {... */\n      pop\n        /* \"ethereum/contracts/Campaign.sol\":1272:1546  function createRequest(string memory d, uint v, address r) public isManager{... */\n      pop\n      pop\n      pop\n      jump\t// out\n        /* \"ethereum/contracts/Campaign.sol\":707:738  uint public minimumContribution */\n    tag_40:\n      sload(0x01)\n      dup2\n      jump\t// out\n        /* \"ethereum/contracts/Campaign.sol\":1104:1266  function contribute() public payable{... */\n    tag_44:\n        /* \"ethereum/contracts/Campaign.sol\":1170:1189  minimumContribution */\n      sload(0x01)\n        /* \"ethereum/contracts/Campaign.sol\":1158:1167  msg.value */\n      callvalue\n        /* \"ethereum/contracts/Campaign.sol\":1158:1189  msg.value > minimumContribution */\n      gt\n        /* \"ethereum/contracts/Campaign.sol\":1150:1190  require(msg.value > minimumContribution) */\n      tag_72\n      jumpi\n      0x00\n      dup1\n      revert\n    tag_72:\n        /* \"ethereum/contracts/Campaign.sol\":1224:1228  true */\n      0x01\n        /* \"ethereum/contracts/Campaign.sol\":1200:1209  approvers */\n      0x02\n        /* \"ethereum/contracts/Campaign.sol\":1200:1221  approvers[msg.sender] */\n      0x00\n        /* \"ethereum/contracts/Campaign.sol\":1210:1220  msg.sender */\n      caller\n        /* \"ethereum/contracts/Campaign.sol\":1200:1221  approvers[msg.sender] */\n      0xffffffffffffffffffffffffffffffffffffffff\n      and\n      0xffffffffffffffffffffffffffffffffffffffff\n      and\n      dup2\n      mstore\n      0x20\n      add\n      swap1\n      dup2\n      mstore\n      0x20\n      add\n      0x00\n      keccak256\n      0x00\n        /* \"ethereum/contracts/Campaign.sol\":1200:1228  approvers[msg.sender] = true */\n      0x0100\n      exp\n      dup2\n      sload\n      dup2\n      0xff\n      mul\n      not\n      and\n      swap1\n      dup4\n      iszero\n      iszero\n      mul\n      or\n      swap1\n      sstore\n      pop\n        /* \"ethereum/contracts/Campaign.sol\":1238:1257  totalApproversCount */\n      0x05\n      0x00\n        /* \"ethereum/contracts/Campaign.sol\":1238:1259  totalApproversCount++ */\n      dup2\n      sload\n      dup1\n      swap3\n      swap2\n      swap1\n      tag_73\n      swap1\n      tag_68\n      jump\t// in\n    tag_73:\n      swap2\n      swap1\n      pop\n      sstore\n      pop\n        /* \"ethereum/contracts/Campaign.sol\":1104:1266  function contribute() public payable{... */\n      jump\t// out\n        /* \"ethereum/contracts/Campaign.sol\":1552:1878  function approveRequest(uint index) public{... */\n    tag_48:\n        /* \"ethereum/contracts/Campaign.sol\":1604:1623  Request storage req */\n      0x00\n        /* \"ethereum/contracts/Campaign.sol\":1626:1634  requests */\n      0x04\n        /* \"ethereum/contracts/Campaign.sol\":1626:1641  requests[index] */\n      0x00\n        /* \"ethereum/contracts/Campaign.sol\":1635:1640  index */\n      dup4\n        /* \"ethereum/contracts/Campaign.sol\":1626:1641  requests[index] */\n      dup2\n      mstore\n      0x20\n      add\n      swap1\n      dup2\n      mstore\n      0x20\n      add\n      0x00\n      keccak256\n        /* \"ethereum/contracts/Campaign.sol\":1604:1641  Request storage req = requests[index] */\n      swap1\n      pop\n        /* \"ethereum/contracts/Campaign.sol\":1734:1743  approvers */\n      0x02\n        /* \"ethereum/contracts/Campaign.sol\":1734:1755  approvers[msg.sender] */\n      0x00\n        /* \"ethereum/contracts/Campaign.sol\":1744:1754  msg.sender */\n      caller\n        /* \"ethereum/contracts/Campaign.sol\":1734:1755  approvers[msg.sender] */\n      0xffffffffffffffffffffffffffffffffffffffff\n      and\n      0xffffffffffffffffffffffffffffffffffffffff\n      and\n      dup2\n      mstore\n      0x20\n      add\n      swap1\n      dup2\n      mstore\n      0x20\n      add\n      0x00\n      keccak256\n      0x00\n      swap1\n      sload\n      swap1\n      0x0100\n      exp\n      swap1\n      div\n      0xff\n      and\n        /* \"ethereum/contracts/Campaign.sol\":1726:1756  require(approvers[msg.sender]) */\n      tag_75\n      jumpi\n      0x00\n      dup1\n      revert\n    tag_75:\n        /* \"ethereum/contracts/Campaign.sol\":1775:1778  req */\n      dup1\n        /* \"ethereum/contracts/Campaign.sol\":1775:1788  req.approvals */\n      0x04\n      add\n        /* \"ethereum/contracts/Campaign.sol\":1775:1800  req.approvals[msg.sender] */\n      0x00\n        /* \"ethereum/contracts/Campaign.sol\":1789:1799  msg.sender */\n      caller\n        /* \"ethereum/contracts/Campaign.sol\":1775:1800  req.approvals[msg.sender] */\n      0xffffffffffffffffffffffffffffffffffffffff\n      and\n      0xffffffffffffffffffffffffffffffffffffffff\n      and\n      dup2\n      mstore\n      0x20\n      add\n      swap1\n      dup2\n      mstore\n      0x20\n      add\n      0x00\n      keccak256\n      0x00\n      swap1\n      sload\n      swap1\n      0x0100\n      exp\n      swap1\n      div\n      0xff\n      and\n        /* \"ethereum/contracts/Campaign.sol\":1774:1800  !req.approvals[msg.sender] */\n      iszero\n        /* \"ethereum/contracts/Campaign.sol\":1766:1801  require(!req.approvals[msg.sender]) */\n      tag_76\n      jumpi\n      0x00\n      dup1\n      revert\n    tag_76:\n        /* \"ethereum/contracts/Campaign.sol\":1838:1842  true */\n      0x01\n        /* \"ethereum/contracts/Campaign.sol\":1812:1815  req */\n      dup2\n        /* \"ethereum/contracts/Campaign.sol\":1812:1825  req.approvals */\n      0x04\n      add\n        /* \"ethereum/contracts/Campaign.sol\":1812:1837  req.approvals[msg.sender] */\n      0x00\n        /* \"ethereum/contracts/Campaign.sol\":1826:1836  msg.sender */\n      caller\n        /* \"ethereum/contracts/Campaign.sol\":1812:1837  req.approvals[msg.sender] */\n      0xffffffffffffffffffffffffffffffffffffffff\n      and\n      0xffffffffffffffffffffffffffffffffffffffff\n      and\n      dup2\n      mstore\n      0x20\n      add\n      swap1\n      dup2\n      mstore\n      0x20\n      add\n      0x00\n      keccak256\n      0x00\n        /* \"ethereum/contracts/Campaign.sol\":1812:1842  req.approvals[msg.sender]=true */\n      0x0100\n      exp\n      dup2\n      sload\n      dup2\n      0xff\n      mul\n      not\n      and\n      swap1\n      dup4\n      iszero\n      iszero\n      mul\n      or\n      swap1\n      sstore\n      pop\n        /* \"ethereum/contracts/Campaign.sol\":1852:1855  req */\n      dup1\n        /* \"ethereum/contracts/Campaign.sol\":1852:1869  req.approvalCount */\n      0x03\n      add\n      0x00\n        /* \"ethereum/contracts/Campaign.sol\":1852:1871  req.approvalCount++ */\n      dup2\n      sload\n      dup1\n      swap3\n      swap2\n      swap1\n      tag_77\n      swap1\n      tag_68\n      jump\t// in\n    tag_77:\n      swap2\n      swap1\n      pop\n      sstore\n      pop\n        /* \"ethereum/contracts/Campaign.sol\":1594:1878  {... */\n      pop\n        /* \"ethereum/contracts/Campaign.sol\":1552:1878  function approveRequest(uint index) public{... */\n      pop\n      jump\t// out\n        /* \"#utility.yul\":7:82   */\n    tag_78:\n        /* \"#utility.yul\":40:46   */\n      0x00\n        /* \"#utility.yul\":73:75   */\n      0x40\n        /* \"#utility.yul\":67:76   */\n      mload\n        /* \"#utility.yul\":57:76   */\n      swap1\n      pop\n        /* \"#utility.yul\":7:82   */\n      swap1\n      jump\t// out\n        /* \"#utility.yul\":88:205   */\n    tag_79:\n        /* \"#utility.yul\":197:198   */\n      0x00\n        /* \"#utility.yul\":194:195   */\n      dup1\n        /* \"#utility.yul\":187:199   */\n      revert\n        /* \"#utility.yul\":211:328   */\n    tag_80:\n        /* \"#utility.yul\":320:321   */\n      0x00\n        /* \"#utility.yul\":317:318   */\n      dup1\n        /* \"#utility.yul\":310:322   */\n      revert\n        /* \"#utility.yul\":334:411   */\n    tag_81:\n        /* \"#utility.yul\":371:378   */\n      0x00\n        /* \"#utility.yul\":400:405   */\n      dup2\n        /* \"#utility.yul\":389:405   */\n      swap1\n      pop\n        /* \"#utility.yul\":334:411   */\n      swap2\n      swap1\n      pop\n      jump\t// out\n        /* \"#utility.yul\":417:539   */\n    tag_82:\n        /* \"#utility.yul\":490:514   */\n      tag_130\n        /* \"#utility.yul\":508:513   */\n      dup2\n        /* \"#utility.yul\":490:514   */\n      tag_81\n      jump\t// in\n    tag_130:\n        /* \"#utility.yul\":483:488   */\n      dup2\n        /* \"#utility.yul\":480:515   */\n      eq\n        /* \"#utility.yul\":470:533   */\n      tag_131\n      jumpi\n        /* \"#utility.yul\":529:530   */\n      0x00\n        /* \"#utility.yul\":526:527   */\n      dup1\n        /* \"#utility.yul\":519:531   */\n      revert\n        /* \"#utility.yul\":470:533   */\n    tag_131:\n        /* \"#utility.yul\":417:539   */\n      pop\n      jump\t// out\n        /* \"#utility.yul\":545:684   */\n    tag_83:\n        /* \"#utility.yul\":591:596   */\n      0x00\n        /* \"#utility.yul\":629:635   */\n      dup2\n        /* \"#utility.yul\":616:636   */\n      calldataload\n        /* \"#utility.yul\":607:636   */\n      swap1\n      pop\n        /* \"#utility.yul\":645:678   */\n      tag_133\n        /* \"#utility.yul\":672:677   */\n      dup2\n        /* \"#utility.yul\":645:678   */\n      tag_82\n      jump\t// in\n    tag_133:\n        /* \"#utility.yul\":545:684   */\n      swap3\n      swap2\n      pop\n      pop\n      jump\t// out\n        /* \"#utility.yul\":690:1019   */\n    tag_13:\n        /* \"#utility.yul\":749:755   */\n      0x00\n        /* \"#utility.yul\":798:800   */\n      0x20\n        /* \"#utility.yul\":786:795   */\n      dup3\n        /* \"#utility.yul\":777:784   */\n      dup5\n        /* \"#utility.yul\":773:796   */\n      sub\n        /* \"#utility.yul\":769:801   */\n      slt\n        /* \"#utility.yul\":766:885   */\n      iszero\n      tag_135\n      jumpi\n        /* \"#utility.yul\":804:883   */\n      tag_136\n      tag_79\n      jump\t// in\n    tag_136:\n        /* \"#utility.yul\":766:885   */\n    tag_135:\n        /* \"#utility.yul\":924:925   */\n      0x00\n        /* \"#utility.yul\":949:1002   */\n      tag_137\n        /* \"#utility.yul\":994:1001   */\n      dup5\n        /* \"#utility.yul\":985:991   */\n      dup3\n        /* \"#utility.yul\":974:983   */\n      dup6\n        /* \"#utility.yul\":970:992   */\n      add\n        /* \"#utility.yul\":949:1002   */\n      tag_83\n      jump\t// in\n    tag_137:\n        /* \"#utility.yul\":939:1002   */\n      swap2\n      pop\n        /* \"#utility.yul\":895:1012   */\n      pop\n        /* \"#utility.yul\":690:1019   */\n      swap3\n      swap2\n      pop\n      pop\n      jump\t// out\n        /* \"#utility.yul\":1025:1151   */\n    tag_84:\n        /* \"#utility.yul\":1062:1069   */\n      0x00\n        /* \"#utility.yul\":1102:1144   */\n      0xffffffffffffffffffffffffffffffffffffffff\n        /* \"#utility.yul\":1095:1100   */\n      dup3\n        /* \"#utility.yul\":1091:1145   */\n      and\n        /* \"#utility.yul\":1080:1145   */\n      swap1\n      pop\n        /* \"#utility.yul\":1025:1151   */\n      swap2\n      swap1\n      pop\n      jump\t// out\n        /* \"#utility.yul\":1157:1253   */\n    tag_85:\n        /* \"#utility.yul\":1194:1201   */\n      0x00\n        /* \"#utility.yul\":1223:1247   */\n      tag_140\n        /* \"#utility.yul\":1241:1246   */\n      dup3\n        /* \"#utility.yul\":1223:1247   */\n      tag_84\n      jump\t// in\n    tag_140:\n        /* \"#utility.yul\":1212:1247   */\n      swap1\n      pop\n        /* \"#utility.yul\":1157:1253   */\n      swap2\n      swap1\n      pop\n      jump\t// out\n        /* \"#utility.yul\":1259:1381   */\n    tag_86:\n        /* \"#utility.yul\":1332:1356   */\n      tag_142\n        /* \"#utility.yul\":1350:1355   */\n      dup2\n        /* \"#utility.yul\":1332:1356   */\n      tag_85\n      jump\t// in\n    tag_142:\n        /* \"#utility.yul\":1325:1330   */\n      dup2\n        /* \"#utility.yul\":1322:1357   */\n      eq\n        /* \"#utility.yul\":1312:1375   */\n      tag_143\n      jumpi\n        /* \"#utility.yul\":1371:1372   */\n      0x00\n        /* \"#utility.yul\":1368:1369   */\n      dup1\n        /* \"#utility.yul\":1361:1373   */\n      revert\n        /* \"#utility.yul\":1312:1375   */\n    tag_143:\n        /* \"#utility.yul\":1259:1381   */\n      pop\n      jump\t// out\n        /* \"#utility.yul\":1387:1526   */\n    tag_87:\n        /* \"#utility.yul\":1433:1438   */\n      0x00\n        /* \"#utility.yul\":1471:1477   */\n      dup2\n        /* \"#utility.yul\":1458:1478   */\n      calldataload\n        /* \"#utility.yul\":1449:1478   */\n      swap1\n      pop\n        /* \"#utility.yul\":1487:1520   */\n      tag_145\n        /* \"#utility.yul\":1514:1519   */\n      dup2\n        /* \"#utility.yul\":1487:1520   */\n      tag_86\n      jump\t// in\n    tag_145:\n        /* \"#utility.yul\":1387:1526   */\n      swap3\n      swap2\n      pop\n      pop\n      jump\t// out\n        /* \"#utility.yul\":1532:1861   */\n    tag_18:\n        /* \"#utility.yul\":1591:1597   */\n      0x00\n        /* \"#utility.yul\":1640:1642   */\n      0x20\n        /* \"#utility.yul\":1628:1637   */\n      dup3\n        /* \"#utility.yul\":1619:1626   */\n      dup5\n        /* \"#utility.yul\":1615:1638   */\n      sub\n        /* \"#utility.yul\":1611:1643   */\n      slt\n        /* \"#utility.yul\":1608:1727   */\n      iszero\n      tag_147\n      jumpi\n        /* \"#utility.yul\":1646:1725   */\n      tag_148\n      tag_79\n      jump\t// in\n    tag_148:\n        /* \"#utility.yul\":1608:1727   */\n    tag_147:\n        /* \"#utility.yul\":1766:1767   */\n      0x00\n        /* \"#utility.yul\":1791:1844   */\n      tag_149\n        /* \"#utility.yul\":1836:1843   */\n      dup5\n        /* \"#utility.yul\":1827:1833   */\n      dup3\n        /* \"#utility.yul\":1816:1825   */\n      dup6\n        /* \"#utility.yul\":1812:1834   */\n      add\n        /* \"#utility.yul\":1791:1844   */\n      tag_87\n      jump\t// in\n    tag_149:\n        /* \"#utility.yul\":1781:1844   */\n      swap2\n      pop\n        /* \"#utility.yul\":1737:1854   */\n      pop\n        /* \"#utility.yul\":1532:1861   */\n      swap3\n      swap2\n      pop\n      pop\n      jump\t// out\n        /* \"#utility.yul\":1867:1957   */\n    tag_88:\n        /* \"#utility.yul\":1901:1908   */\n      0x00\n        /* \"#utility.yul\":1944:1949   */\n      dup2\n        /* \"#utility.yul\":1937:1950   */\n      iszero\n        /* \"#utility.yul\":1930:1951   */\n      iszero\n        /* \"#utility.yul\":1919:1951   */\n      swap1\n      pop\n        /* \"#utility.yul\":1867:1957   */\n      swap2\n      swap1\n      pop\n      jump\t// out\n        /* \"#utility.yul\":1963:2072   */\n    tag_89:\n        /* \"#utility.yul\":2044:2065   */\n      tag_152\n        /* \"#utility.yul\":2059:2064   */\n      dup2\n        /* \"#utility.yul\":2044:2065   */\n      tag_88\n      jump\t// in\n    tag_152:\n        /* \"#utility.yul\":2039:2042   */\n      dup3\n        /* \"#utility.yul\":2032:2066   */\n      mstore\n        /* \"#utility.yul\":1963:2072   */\n      pop\n      pop\n      jump\t// out\n        /* \"#utility.yul\":2078:2288   */\n    tag_21:\n        /* \"#utility.yul\":2165:2169   */\n      0x00\n        /* \"#utility.yul\":2203:2205   */\n      0x20\n        /* \"#utility.yul\":2192:2201   */\n      dup3\n        /* \"#utility.yul\":2188:2206   */\n      add\n        /* \"#utility.yul\":2180:2206   */\n      swap1\n      pop\n        /* \"#utility.yul\":2216:2281   */\n      tag_154\n        /* \"#utility.yul\":2278:2279   */\n      0x00\n        /* \"#utility.yul\":2267:2276   */\n      dup4\n        /* \"#utility.yul\":2263:2280   */\n      add\n        /* \"#utility.yul\":2254:2260   */\n      dup5\n        /* \"#utility.yul\":2216:2281   */\n      tag_89\n      jump\t// in\n    tag_154:\n        /* \"#utility.yul\":2078:2288   */\n      swap3\n      swap2\n      pop\n      pop\n      jump\t// out\n        /* \"#utility.yul\":2294:2412   */\n    tag_90:\n        /* \"#utility.yul\":2381:2405   */\n      tag_156\n        /* \"#utility.yul\":2399:2404   */\n      dup2\n        /* \"#utility.yul\":2381:2405   */\n      tag_85\n      jump\t// in\n    tag_156:\n        /* \"#utility.yul\":2376:2379   */\n      dup3\n        /* \"#utility.yul\":2369:2406   */\n      mstore\n        /* \"#utility.yul\":2294:2412   */\n      pop\n      pop\n      jump\t// out\n        /* \"#utility.yul\":2418:2640   */\n    tag_26:\n        /* \"#utility.yul\":2511:2515   */\n      0x00\n        /* \"#utility.yul\":2549:2551   */\n      0x20\n        /* \"#utility.yul\":2538:2547   */\n      dup3\n        /* \"#utility.yul\":2534:2552   */\n      add\n        /* \"#utility.yul\":2526:2552   */\n      swap1\n      pop\n        /* \"#utility.yul\":2562:2633   */\n      tag_158\n        /* \"#utility.yul\":2630:2631   */\n      0x00\n        /* \"#utility.yul\":2619:2628   */\n      dup4\n        /* \"#utility.yul\":2615:2632   */\n      add\n        /* \"#utility.yul\":2606:2612   */\n      dup5\n        /* \"#utility.yul\":2562:2633   */\n      tag_90\n      jump\t// in\n    tag_158:\n        /* \"#utility.yul\":2418:2640   */\n      swap3\n      swap2\n      pop\n      pop\n      jump\t// out\n        /* \"#utility.yul\":2646:2745   */\n    tag_91:\n        /* \"#utility.yul\":2698:2704   */\n      0x00\n        /* \"#utility.yul\":2732:2737   */\n      dup2\n        /* \"#utility.yul\":2726:2738   */\n      mload\n        /* \"#utility.yul\":2716:2738   */\n      swap1\n      pop\n        /* \"#utility.yul\":2646:2745   */\n      swap2\n      swap1\n      pop\n      jump\t// out\n        /* \"#utility.yul\":2751:2920   */\n    tag_92:\n        /* \"#utility.yul\":2835:2846   */\n      0x00\n        /* \"#utility.yul\":2869:2875   */\n      dup3\n        /* \"#utility.yul\":2864:2867   */\n      dup3\n        /* \"#utility.yul\":2857:2876   */\n      mstore\n        /* \"#utility.yul\":2909:2913   */\n      0x20\n        /* \"#utility.yul\":2904:2907   */\n      dup3\n        /* \"#utility.yul\":2900:2914   */\n      add\n        /* \"#utility.yul\":2885:2914   */\n      swap1\n      pop\n        /* \"#utility.yul\":2751:2920   */\n      swap3\n      swap2\n      pop\n      pop\n      jump\t// out\n        /* \"#utility.yul\":2926:3172   */\n    tag_93:\n        /* \"#utility.yul\":3007:3008   */\n      0x00\n        /* \"#utility.yul\":3017:3130   */\n    tag_162:\n        /* \"#utility.yul\":3031:3037   */\n      dup4\n        /* \"#utility.yul\":3028:3029   */\n      dup2\n        /* \"#utility.yul\":3025:3038   */\n      lt\n        /* \"#utility.yul\":3017:3130   */\n      iszero\n      tag_164\n      jumpi\n        /* \"#utility.yul\":3116:3117   */\n      dup1\n        /* \"#utility.yul\":3111:3114   */\n      dup3\n        /* \"#utility.yul\":3107:3118   */\n      add\n        /* \"#utility.yul\":3101:3119   */\n      mload\n        /* \"#utility.yul\":3097:3098   */\n      dup2\n        /* \"#utility.yul\":3092:3095   */\n      dup5\n        /* \"#utility.yul\":3088:3099   */\n      add\n        /* \"#utility.yul\":3081:3120   */\n      mstore\n        /* \"#utility.yul\":3053:3055   */\n      0x20\n        /* \"#utility.yul\":3050:3051   */\n      dup2\n        /* \"#utility.yul\":3046:3056   */\n      add\n        /* \"#utility.yul\":3041:3056   */\n      swap1\n      pop\n        /* \"#utility.yul\":3017:3130   */\n      jump(tag_162)\n    tag_164:\n        /* \"#utility.yul\":3164:3165   */\n      0x00\n        /* \"#utility.yul\":3155:3161   */\n      dup5\n        /* \"#utility.yul\":3150:3153   */\n      dup5\n        /* \"#utility.yul\":3146:3162   */\n      add\n        /* \"#utility.yul\":3139:3166   */\n      mstore\n        /* \"#utility.yul\":2988:3172   */\n      pop\n        /* \"#utility.yul\":2926:3172   */\n      pop\n      pop\n      pop\n      jump\t// out\n        /* \"#utility.yul\":3178:3280   */\n    tag_94:\n        /* \"#utility.yul\":3219:3225   */\n      0x00\n        /* \"#utility.yul\":3270:3272   */\n      0x1f\n        /* \"#utility.yul\":3266:3273   */\n      not\n        /* \"#utility.yul\":3261:3263   */\n      0x1f\n        /* \"#utility.yul\":3254:3259   */\n      dup4\n        /* \"#utility.yul\":3250:3264   */\n      add\n        /* \"#utility.yul\":3246:3274   */\n      and\n        /* \"#utility.yul\":3236:3274   */\n      swap1\n      pop\n        /* \"#utility.yul\":3178:3280   */\n      swap2\n      swap1\n      pop\n      jump\t// out\n        /* \"#utility.yul\":3286:3663   */\n    tag_95:\n        /* \"#utility.yul\":3374:3377   */\n      0x00\n        /* \"#utility.yul\":3402:3441   */\n      tag_167\n        /* \"#utility.yul\":3435:3440   */\n      dup3\n        /* \"#utility.yul\":3402:3441   */\n      tag_91\n      jump\t// in\n    tag_167:\n        /* \"#utility.yul\":3457:3528   */\n      tag_168\n        /* \"#utility.yul\":3521:3527   */\n      dup2\n        /* \"#utility.yul\":3516:3519   */\n      dup6\n        /* \"#utility.yul\":3457:3528   */\n      tag_92\n      jump\t// in\n    tag_168:\n        /* \"#utility.yul\":3450:3528   */\n      swap4\n      pop\n        /* \"#utility.yul\":3537:3602   */\n      tag_169\n        /* \"#utility.yul\":3595:3601   */\n      dup2\n        /* \"#utility.yul\":3590:3593   */\n      dup6\n        /* \"#utility.yul\":3583:3587   */\n      0x20\n        /* \"#utility.yul\":3576:3581   */\n      dup7\n        /* \"#utility.yul\":3572:3588   */\n      add\n        /* \"#utility.yul\":3537:3602   */\n      tag_93\n      jump\t// in\n    tag_169:\n        /* \"#utility.yul\":3627:3656   */\n      tag_170\n        /* \"#utility.yul\":3649:3655   */\n      dup2\n        /* \"#utility.yul\":3627:3656   */\n      tag_94\n      jump\t// in\n    tag_170:\n        /* \"#utility.yul\":3622:3625   */\n      dup5\n        /* \"#utility.yul\":3618:3657   */\n      add\n        /* \"#utility.yul\":3611:3657   */\n      swap2\n      pop\n        /* \"#utility.yul\":3378:3663   */\n      pop\n        /* \"#utility.yul\":3286:3663   */\n      swap3\n      swap2\n      pop\n      pop\n      jump\t// out\n        /* \"#utility.yul\":3669:3787   */\n    tag_96:\n        /* \"#utility.yul\":3756:3780   */\n      tag_172\n        /* \"#utility.yul\":3774:3779   */\n      dup2\n        /* \"#utility.yul\":3756:3780   */\n      tag_81\n      jump\t// in\n    tag_172:\n        /* \"#utility.yul\":3751:3754   */\n      dup3\n        /* \"#utility.yul\":3744:3781   */\n      mstore\n        /* \"#utility.yul\":3669:3787   */\n      pop\n      pop\n      jump\t// out\n        /* \"#utility.yul\":3793:4536   */\n    tag_32:\n        /* \"#utility.yul\":4012:4016   */\n      0x00\n        /* \"#utility.yul\":4050:4053   */\n      0xa0\n        /* \"#utility.yul\":4039:4048   */\n      dup3\n        /* \"#utility.yul\":4035:4054   */\n      add\n        /* \"#utility.yul\":4027:4054   */\n      swap1\n      pop\n        /* \"#utility.yul\":4100:4109   */\n      dup2\n        /* \"#utility.yul\":4094:4098   */\n      dup2\n        /* \"#utility.yul\":4090:4110   */\n      sub\n        /* \"#utility.yul\":4086:4087   */\n      0x00\n        /* \"#utility.yul\":4075:4084   */\n      dup4\n        /* \"#utility.yul\":4071:4088   */\n      add\n        /* \"#utility.yul\":4064:4111   */\n      mstore\n        /* \"#utility.yul\":4128:4206   */\n      tag_174\n        /* \"#utility.yul\":4201:4205   */\n      dup2\n        /* \"#utility.yul\":4192:4198   */\n      dup9\n        /* \"#utility.yul\":4128:4206   */\n      tag_95\n      jump\t// in\n    tag_174:\n        /* \"#utility.yul\":4120:4206   */\n      swap1\n      pop\n        /* \"#utility.yul\":4216:4288   */\n      tag_175\n        /* \"#utility.yul\":4284:4286   */\n      0x20\n        /* \"#utility.yul\":4273:4282   */\n      dup4\n        /* \"#utility.yul\":4269:4287   */\n      add\n        /* \"#utility.yul\":4260:4266   */\n      dup8\n        /* \"#utility.yul\":4216:4288   */\n      tag_96\n      jump\t// in\n    tag_175:\n        /* \"#utility.yul\":4298:4370   */\n      tag_176\n        /* \"#utility.yul\":4366:4368   */\n      0x40\n        /* \"#utility.yul\":4355:4364   */\n      dup4\n        /* \"#utility.yul\":4351:4369   */\n      add\n        /* \"#utility.yul\":4342:4348   */\n      dup7\n        /* \"#utility.yul\":4298:4370   */\n      tag_90\n      jump\t// in\n    tag_176:\n        /* \"#utility.yul\":4380:4446   */\n      tag_177\n        /* \"#utility.yul\":4442:4444   */\n      0x60\n        /* \"#utility.yul\":4431:4440   */\n      dup4\n        /* \"#utility.yul\":4427:4445   */\n      add\n        /* \"#utility.yul\":4418:4424   */\n      dup6\n        /* \"#utility.yul\":4380:4446   */\n      tag_89\n      jump\t// in\n    tag_177:\n        /* \"#utility.yul\":4456:4529   */\n      tag_178\n        /* \"#utility.yul\":4524:4527   */\n      0x80\n        /* \"#utility.yul\":4513:4522   */\n      dup4\n        /* \"#utility.yul\":4509:4528   */\n      add\n        /* \"#utility.yul\":4500:4506   */\n      dup5\n        /* \"#utility.yul\":4456:4529   */\n      tag_96\n      jump\t// in\n    tag_178:\n        /* \"#utility.yul\":3793:4536   */\n      swap7\n      swap6\n      pop\n      pop\n      pop\n      pop\n      pop\n      pop\n      jump\t// out\n        /* \"#utility.yul\":4542:4659   */\n    tag_97:\n        /* \"#utility.yul\":4651:4652   */\n      0x00\n        /* \"#utility.yul\":4648:4649   */\n      dup1\n        /* \"#utility.yul\":4641:4653   */\n      revert\n        /* \"#utility.yul\":4665:4782   */\n    tag_98:\n        /* \"#utility.yul\":4774:4775   */\n      0x00\n        /* \"#utility.yul\":4771:4772   */\n      dup1\n        /* \"#utility.yul\":4764:4776   */\n      revert\n        /* \"#utility.yul\":4788:4968   */\n    tag_99:\n        /* \"#utility.yul\":4836:4913   */\n      0x4e487b7100000000000000000000000000000000000000000000000000000000\n        /* \"#utility.yul\":4833:4834   */\n      0x00\n        /* \"#utility.yul\":4826:4914   */\n      mstore\n        /* \"#utility.yul\":4933:4937   */\n      0x41\n        /* \"#utility.yul\":4930:4931   */\n      0x04\n        /* \"#utility.yul\":4923:4938   */\n      mstore\n        /* \"#utility.yul\":4957:4961   */\n      0x24\n        /* \"#utility.yul\":4954:4955   */\n      0x00\n        /* \"#utility.yul\":4947:4962   */\n      revert\n        /* \"#utility.yul\":4974:5255   */\n    tag_100:\n        /* \"#utility.yul\":5057:5084   */\n      tag_183\n        /* \"#utility.yul\":5079:5083   */\n      dup3\n        /* \"#utility.yul\":5057:5084   */\n      tag_94\n      jump\t// in\n    tag_183:\n        /* \"#utility.yul\":5049:5055   */\n      dup2\n        /* \"#utility.yul\":5045:5085   */\n      add\n        /* \"#utility.yul\":5187:5193   */\n      dup2\n        /* \"#utility.yul\":5175:5185   */\n      dup2\n        /* \"#utility.yul\":5172:5194   */\n      lt\n        /* \"#utility.yul\":5151:5169   */\n      0xffffffffffffffff\n        /* \"#utility.yul\":5139:5149   */\n      dup3\n        /* \"#utility.yul\":5136:5170   */\n      gt\n        /* \"#utility.yul\":5133:5195   */\n      or\n        /* \"#utility.yul\":5130:5218   */\n      iszero\n      tag_184\n      jumpi\n        /* \"#utility.yul\":5198:5216   */\n      tag_185\n      tag_99\n      jump\t// in\n    tag_185:\n        /* \"#utility.yul\":5130:5218   */\n    tag_184:\n        /* \"#utility.yul\":5238:5248   */\n      dup1\n        /* \"#utility.yul\":5234:5236   */\n      0x40\n        /* \"#utility.yul\":5227:5249   */\n      mstore\n        /* \"#utility.yul\":5017:5255   */\n      pop\n        /* \"#utility.yul\":4974:5255   */\n      pop\n      pop\n      jump\t// out\n        /* \"#utility.yul\":5261:5390   */\n    tag_101:\n        /* \"#utility.yul\":5295:5301   */\n      0x00\n        /* \"#utility.yul\":5322:5342   */\n      tag_187\n      tag_78\n      jump\t// in\n    tag_187:\n        /* \"#utility.yul\":5312:5342   */\n      swap1\n      pop\n        /* \"#utility.yul\":5351:5384   */\n      tag_188\n        /* \"#utility.yul\":5379:5383   */\n      dup3\n        /* \"#utility.yul\":5371:5377   */\n      dup3\n        /* \"#utility.yul\":5351:5384   */\n      tag_100\n      jump\t// in\n    tag_188:\n        /* \"#utility.yul\":5261:5390   */\n      swap2\n      swap1\n      pop\n      jump\t// out\n        /* \"#utility.yul\":5396:5704   */\n    tag_102:\n        /* \"#utility.yul\":5458:5462   */\n      0x00\n        /* \"#utility.yul\":5548:5566   */\n      0xffffffffffffffff\n        /* \"#utility.yul\":5540:5546   */\n      dup3\n        /* \"#utility.yul\":5537:5567   */\n      gt\n        /* \"#utility.yul\":5534:5590   */\n      iszero\n      tag_190\n      jumpi\n        /* \"#utility.yul\":5570:5588   */\n      tag_191\n      tag_99\n      jump\t// in\n    tag_191:\n        /* \"#utility.yul\":5534:5590   */\n    tag_190:\n        /* \"#utility.yul\":5608:5637   */\n      tag_192\n        /* \"#utility.yul\":5630:5636   */\n      dup3\n        /* \"#utility.yul\":5608:5637   */\n      tag_94\n      jump\t// in\n    tag_192:\n        /* \"#utility.yul\":5600:5637   */\n      swap1\n      pop\n        /* \"#utility.yul\":5692:5696   */\n      0x20\n        /* \"#utility.yul\":5686:5690   */\n      dup2\n        /* \"#utility.yul\":5682:5697   */\n      add\n        /* \"#utility.yul\":5674:5697   */\n      swap1\n      pop\n        /* \"#utility.yul\":5396:5704   */\n      swap2\n      swap1\n      pop\n      jump\t// out\n        /* \"#utility.yul\":5710:5856   */\n    tag_103:\n        /* \"#utility.yul\":5807:5813   */\n      dup3\n        /* \"#utility.yul\":5802:5805   */\n      dup2\n        /* \"#utility.yul\":5797:5800   */\n      dup4\n        /* \"#utility.yul\":5784:5814   */\n      calldatacopy\n        /* \"#utility.yul\":5848:5849   */\n      0x00\n        /* \"#utility.yul\":5839:5845   */\n      dup4\n        /* \"#utility.yul\":5834:5837   */\n      dup4\n        /* \"#utility.yul\":5830:5846   */\n      add\n        /* \"#utility.yul\":5823:5850   */\n      mstore\n        /* \"#utility.yul\":5710:5856   */\n      pop\n      pop\n      pop\n      jump\t// out\n        /* \"#utility.yul\":5862:6287   */\n    tag_104:\n        /* \"#utility.yul\":5940:5945   */\n      0x00\n        /* \"#utility.yul\":5965:6031   */\n      tag_195\n        /* \"#utility.yul\":5981:6030   */\n      tag_196\n        /* \"#utility.yul\":6023:6029   */\n      dup5\n        /* \"#utility.yul\":5981:6030   */\n      tag_102\n      jump\t// in\n    tag_196:\n        /* \"#utility.yul\":5965:6031   */\n      tag_101\n      jump\t// in\n    tag_195:\n        /* \"#utility.yul\":5956:6031   */\n      swap1\n      pop\n        /* \"#utility.yul\":6054:6060   */\n      dup3\n        /* \"#utility.yul\":6047:6052   */\n      dup2\n        /* \"#utility.yul\":6040:6061   */\n      mstore\n        /* \"#utility.yul\":6092:6096   */\n      0x20\n        /* \"#utility.yul\":6085:6090   */\n      dup2\n        /* \"#utility.yul\":6081:6097   */\n      add\n        /* \"#utility.yul\":6130:6133   */\n      dup5\n        /* \"#utility.yul\":6121:6127   */\n      dup5\n        /* \"#utility.yul\":6116:6119   */\n      dup5\n        /* \"#utility.yul\":6112:6128   */\n      add\n        /* \"#utility.yul\":6109:6134   */\n      gt\n        /* \"#utility.yul\":6106:6218   */\n      iszero\n      tag_197\n      jumpi\n        /* \"#utility.yul\":6137:6216   */\n      tag_198\n      tag_98\n      jump\t// in\n    tag_198:\n        /* \"#utility.yul\":6106:6218   */\n    tag_197:\n        /* \"#utility.yul\":6227:6281   */\n      tag_199\n        /* \"#utility.yul\":6274:6280   */\n      dup5\n        /* \"#utility.yul\":6269:6272   */\n      dup3\n        /* \"#utility.yul\":6264:6267   */\n      dup6\n        /* \"#utility.yul\":6227:6281   */\n      tag_103\n      jump\t// in\n    tag_199:\n        /* \"#utility.yul\":5946:6287   */\n      pop\n        /* \"#utility.yul\":5862:6287   */\n      swap4\n      swap3\n      pop\n      pop\n      pop\n      jump\t// out\n        /* \"#utility.yul\":6307:6647   */\n    tag_105:\n        /* \"#utility.yul\":6363:6368   */\n      0x00\n        /* \"#utility.yul\":6412:6415   */\n      dup3\n        /* \"#utility.yul\":6405:6409   */\n      0x1f\n        /* \"#utility.yul\":6397:6403   */\n      dup4\n        /* \"#utility.yul\":6393:6410   */\n      add\n        /* \"#utility.yul\":6389:6416   */\n      slt\n        /* \"#utility.yul\":6379:6501   */\n      tag_201\n      jumpi\n        /* \"#utility.yul\":6420:6499   */\n      tag_202\n      tag_97\n      jump\t// in\n    tag_202:\n        /* \"#utility.yul\":6379:6501   */\n    tag_201:\n        /* \"#utility.yul\":6537:6543   */\n      dup2\n        /* \"#utility.yul\":6524:6544   */\n      calldataload\n        /* \"#utility.yul\":6562:6641   */\n      tag_203\n        /* \"#utility.yul\":6637:6640   */\n      dup5\n        /* \"#utility.yul\":6629:6635   */\n      dup3\n        /* \"#utility.yul\":6622:6626   */\n      0x20\n        /* \"#utility.yul\":6614:6620   */\n      dup7\n        /* \"#utility.yul\":6610:6627   */\n      add\n        /* \"#utility.yul\":6562:6641   */\n      tag_104\n      jump\t// in\n    tag_203:\n        /* \"#utility.yul\":6553:6641   */\n      swap2\n      pop\n        /* \"#utility.yul\":6369:6647   */\n      pop\n        /* \"#utility.yul\":6307:6647   */\n      swap3\n      swap2\n      pop\n      pop\n      jump\t// out\n        /* \"#utility.yul\":6653:7452   */\n    tag_36:\n        /* \"#utility.yul\":6740:6746   */\n      0x00\n        /* \"#utility.yul\":6748:6754   */\n      dup1\n        /* \"#utility.yul\":6756:6762   */\n      0x00\n        /* \"#utility.yul\":6805:6807   */\n      0x60\n        /* \"#utility.yul\":6793:6802   */\n      dup5\n        /* \"#utility.yul\":6784:6791   */\n      dup7\n        /* \"#utility.yul\":6780:6803   */\n      sub\n        /* \"#utility.yul\":6776:6808   */\n      slt\n        /* \"#utility.yul\":6773:6892   */\n      iszero\n      tag_205\n      jumpi\n        /* \"#utility.yul\":6811:6890   */\n      tag_206\n      tag_79\n      jump\t// in\n    tag_206:\n        /* \"#utility.yul\":6773:6892   */\n    tag_205:\n        /* \"#utility.yul\":6959:6960   */\n      0x00\n        /* \"#utility.yul\":6948:6957   */\n      dup5\n        /* \"#utility.yul\":6944:6961   */\n      add\n        /* \"#utility.yul\":6931:6962   */\n      calldataload\n        /* \"#utility.yul\":6989:7007   */\n      0xffffffffffffffff\n        /* \"#utility.yul\":6981:6987   */\n      dup2\n        /* \"#utility.yul\":6978:7008   */\n      gt\n        /* \"#utility.yul\":6975:7092   */\n      iszero\n      tag_207\n      jumpi\n        /* \"#utility.yul\":7011:7090   */\n      tag_208\n      tag_80\n      jump\t// in\n    tag_208:\n        /* \"#utility.yul\":6975:7092   */\n    tag_207:\n        /* \"#utility.yul\":7116:7179   */\n      tag_209\n        /* \"#utility.yul\":7171:7178   */\n      dup7\n        /* \"#utility.yul\":7162:7168   */\n      dup3\n        /* \"#utility.yul\":7151:7160   */\n      dup8\n        /* \"#utility.yul\":7147:7169   */\n      add\n        /* \"#utility.yul\":7116:7179   */\n      tag_105\n      jump\t// in\n    tag_209:\n        /* \"#utility.yul\":7106:7179   */\n      swap4\n      pop\n        /* \"#utility.yul\":6902:7189   */\n      pop\n        /* \"#utility.yul\":7228:7230   */\n      0x20\n        /* \"#utility.yul\":7254:7307   */\n      tag_210\n        /* \"#utility.yul\":7299:7306   */\n      dup7\n        /* \"#utility.yul\":7290:7296   */\n      dup3\n        /* \"#utility.yul\":7279:7288   */\n      dup8\n        /* \"#utility.yul\":7275:7297   */\n      add\n        /* \"#utility.yul\":7254:7307   */\n      tag_83\n      jump\t// in\n    tag_210:\n        /* \"#utility.yul\":7244:7307   */\n      swap3\n      pop\n        /* \"#utility.yul\":7199:7317   */\n      pop\n        /* \"#utility.yul\":7356:7358   */\n      0x40\n        /* \"#utility.yul\":7382:7435   */\n      tag_211\n        /* \"#utility.yul\":7427:7434   */\n      dup7\n        /* \"#utility.yul\":7418:7424   */\n      dup3\n        /* \"#utility.yul\":7407:7416   */\n      dup8\n        /* \"#utility.yul\":7403:7425   */\n      add\n        /* \"#utility.yul\":7382:7435   */\n      tag_87\n      jump\t// in\n    tag_211:\n        /* \"#utility.yul\":7372:7435   */\n      swap2\n      pop\n        /* \"#utility.yul\":7327:7445   */\n      pop\n        /* \"#utility.yul\":6653:7452   */\n      swap3\n      pop\n      swap3\n      pop\n      swap3\n      jump\t// out\n        /* \"#utility.yul\":7458:7680   */\n    tag_42:\n        /* \"#utility.yul\":7551:7555   */\n      0x00\n        /* \"#utility.yul\":7589:7591   */\n      0x20\n        /* \"#utility.yul\":7578:7587   */\n      dup3\n        /* \"#utility.yul\":7574:7592   */\n      add\n        /* \"#utility.yul\":7566:7592   */\n      swap1\n      pop\n        /* \"#utility.yul\":7602:7673   */\n      tag_213\n        /* \"#utility.yul\":7670:7671   */\n      0x00\n        /* \"#utility.yul\":7659:7668   */\n      dup4\n        /* \"#utility.yul\":7655:7672   */\n      add\n        /* \"#utility.yul\":7646:7652   */\n      dup5\n        /* \"#utility.yul\":7602:7673   */\n      tag_96\n      jump\t// in\n    tag_213:\n        /* \"#utility.yul\":7458:7680   */\n      swap3\n      swap2\n      pop\n      pop\n      jump\t// out\n        /* \"#utility.yul\":7686:7866   */\n    tag_106:\n        /* \"#utility.yul\":7734:7811   */\n      0x4e487b7100000000000000000000000000000000000000000000000000000000\n        /* \"#utility.yul\":7731:7732   */\n      0x00\n        /* \"#utility.yul\":7724:7812   */\n      mstore\n        /* \"#utility.yul\":7831:7835   */\n      0x12\n        /* \"#utility.yul\":7828:7829   */\n      0x04\n        /* \"#utility.yul\":7821:7836   */\n      mstore\n        /* \"#utility.yul\":7855:7859   */\n      0x24\n        /* \"#utility.yul\":7852:7853   */\n      0x00\n        /* \"#utility.yul\":7845:7860   */\n      revert\n        /* \"#utility.yul\":7872:8052   */\n    tag_107:\n        /* \"#utility.yul\":7920:7997   */\n      0x4e487b7100000000000000000000000000000000000000000000000000000000\n        /* \"#utility.yul\":7917:7918   */\n      0x00\n        /* \"#utility.yul\":7910:7998   */\n      mstore\n        /* \"#utility.yul\":8017:8021   */\n      0x11\n        /* \"#utility.yul\":8014:8015   */\n      0x04\n        /* \"#utility.yul\":8007:8022   */\n      mstore\n        /* \"#utility.yul\":8041:8045   */\n      0x24\n        /* \"#utility.yul\":8038:8039   */\n      0x00\n        /* \"#utility.yul\":8031:8046   */\n      revert\n        /* \"#utility.yul\":8058:8243   */\n    tag_54:\n        /* \"#utility.yul\":8098:8099   */\n      0x00\n        /* \"#utility.yul\":8115:8135   */\n      tag_217\n        /* \"#utility.yul\":8133:8134   */\n      dup3\n        /* \"#utility.yul\":8115:8135   */\n      tag_81\n      jump\t// in\n    tag_217:\n        /* \"#utility.yul\":8110:8135   */\n      swap2\n      pop\n        /* \"#utility.yul\":8149:8169   */\n      tag_218\n        /* \"#utility.yul\":8167:8168   */\n      dup4\n        /* \"#utility.yul\":8149:8169   */\n      tag_81\n      jump\t// in\n    tag_218:\n        /* \"#utility.yul\":8144:8169   */\n      swap3\n      pop\n        /* \"#utility.yul\":8188:8189   */\n      dup3\n        /* \"#utility.yul\":8178:8213   */\n      tag_219\n      jumpi\n        /* \"#utility.yul\":8193:8211   */\n      tag_220\n      tag_106\n      jump\t// in\n    tag_220:\n        /* \"#utility.yul\":8178:8213   */\n    tag_219:\n        /* \"#utility.yul\":8235:8236   */\n      dup3\n        /* \"#utility.yul\":8232:8233   */\n      dup3\n        /* \"#utility.yul\":8228:8237   */\n      div\n        /* \"#utility.yul\":8223:8237   */\n      swap1\n      pop\n        /* \"#utility.yul\":8058:8243   */\n      swap3\n      swap2\n      pop\n      pop\n      jump\t// out\n        /* \"#utility.yul\":8249:8429   */\n    tag_108:\n        /* \"#utility.yul\":8297:8374   */\n      0x4e487b7100000000000000000000000000000000000000000000000000000000\n        /* \"#utility.yul\":8294:8295   */\n      0x00\n        /* \"#utility.yul\":8287:8375   */\n      mstore\n        /* \"#utility.yul\":8394:8398   */\n      0x22\n        /* \"#utility.yul\":8391:8392   */\n      0x04\n        /* \"#utility.yul\":8384:8399   */\n      mstore\n        /* \"#utility.yul\":8418:8422   */\n      0x24\n        /* \"#utility.yul\":8415:8416   */\n      0x00\n        /* \"#utility.yul\":8408:8423   */\n      revert\n        /* \"#utility.yul\":8435:8755   */\n    tag_59:\n        /* \"#utility.yul\":8479:8485   */\n      0x00\n        /* \"#utility.yul\":8516:8517   */\n      0x02\n        /* \"#utility.yul\":8510:8514   */\n      dup3\n        /* \"#utility.yul\":8506:8518   */\n      div\n        /* \"#utility.yul\":8496:8518   */\n      swap1\n      pop\n        /* \"#utility.yul\":8563:8564   */\n      0x01\n        /* \"#utility.yul\":8557:8561   */\n      dup3\n        /* \"#utility.yul\":8553:8565   */\n      and\n        /* \"#utility.yul\":8584:8602   */\n      dup1\n        /* \"#utility.yul\":8574:8655   */\n      tag_223\n      jumpi\n        /* \"#utility.yul\":8640:8644   */\n      0x7f\n        /* \"#utility.yul\":8632:8638   */\n      dup3\n        /* \"#utility.yul\":8628:8645   */\n      and\n        /* \"#utility.yul\":8618:8645   */\n      swap2\n      pop\n        /* \"#utility.yul\":8574:8655   */\n    tag_223:\n        /* \"#utility.yul\":8702:8704   */\n      0x20\n        /* \"#utility.yul\":8694:8700   */\n      dup3\n        /* \"#utility.yul\":8691:8705   */\n      lt\n        /* \"#utility.yul\":8671:8689   */\n      dup2\n        /* \"#utility.yul\":8668:8706   */\n      sub\n        /* \"#utility.yul\":8665:8749   */\n      tag_224\n      jumpi\n        /* \"#utility.yul\":8721:8739   */\n      tag_225\n      tag_108\n      jump\t// in\n    tag_225:\n        /* \"#utility.yul\":8665:8749   */\n    tag_224:\n        /* \"#utility.yul\":8486:8755   */\n      pop\n        /* \"#utility.yul\":8435:8755   */\n      swap2\n      swap1\n      pop\n      jump\t// out\n        /* \"#utility.yul\":8761:8994   */\n    tag_68:\n        /* \"#utility.yul\":8800:8803   */\n      0x00\n        /* \"#utility.yul\":8823:8847   */\n      tag_227\n        /* \"#utility.yul\":8841:8846   */\n      dup3\n        /* \"#utility.yul\":8823:8847   */\n      tag_81\n      jump\t// in\n    tag_227:\n        /* \"#utility.yul\":8814:8847   */\n      swap2\n      pop\n        /* \"#utility.yul\":8869:8935   */\n      0xffffffffffffffffffffffffffffffffffffffffffffffffffffffffffffffff\n        /* \"#utility.yul\":8862:8867   */\n      dup3\n        /* \"#utility.yul\":8859:8936   */\n      sub\n        /* \"#utility.yul\":8856:8959   */\n      tag_228\n      jumpi\n        /* \"#utility.yul\":8939:8957   */\n      tag_229\n      tag_107\n      jump\t// in\n    tag_229:\n        /* \"#utility.yul\":8856:8959   */\n    tag_228:\n        /* \"#utility.yul\":8986:8987   */\n      0x01\n        /* \"#utility.yul\":8979:8984   */\n      dup3\n        /* \"#utility.yul\":8975:8988   */\n      add\n        /* \"#utility.yul\":8968:8988   */\n      swap1\n      pop\n        /* \"#utility.yul\":8761:8994   */\n      swap2\n      swap1\n      pop\n      jump\t// out\n        /* \"#utility.yul\":9000:9141   */\n    tag_109:\n        /* \"#utility.yul\":9049:9053   */\n      0x00\n        /* \"#utility.yul\":9072:9075   */\n      dup2\n        /* \"#utility.yul\":9064:9075   */\n      swap1\n      pop\n        /* \"#utility.yul\":9095:9098   */\n      dup2\n        /* \"#utility.yul\":9092:9093   */\n      0x00\n        /* \"#utility.yul\":9085:9099   */\n      mstore\n        /* \"#utility.yul\":9129:9133   */\n      0x20\n        /* \"#utility.yul\":9126:9127   */\n      0x00\n        /* \"#utility.yul\":9116:9134   */\n      keccak256\n        /* \"#utility.yul\":9108:9134   */\n      swap1\n      pop\n        /* \"#utility.yul\":9000:9141   */\n      swap2\n      swap1\n      pop\n      jump\t// out\n        /* \"#utility.yul\":9147:9240   */\n    tag_110:\n        /* \"#utility.yul\":9184:9190   */\n      0x00\n        /* \"#utility.yul\":9231:9233   */\n      0x20\n        /* \"#utility.yul\":9226:9228   */\n      0x1f\n        /* \"#utility.yul\":9219:9224   */\n      dup4\n        /* \"#utility.yul\":9215:9229   */\n      add\n        /* \"#utility.yul\":9211:9234   */\n      div\n        /* \"#utility.yul\":9201:9234   */\n      swap1\n      pop\n        /* \"#utility.yul\":9147:9240   */\n      swap2\n      swap1\n      pop\n      jump\t// out\n        /* \"#utility.yul\":9246:9353   */\n    tag_111:\n        /* \"#utility.yul\":9290:9298   */\n      0x00\n        /* \"#utility.yul\":9340:9345   */\n      dup3\n        /* \"#utility.yul\":9334:9338   */\n      dup3\n        /* \"#utility.yul\":9330:9346   */\n      shl\n        /* \"#utility.yul\":9309:9346   */\n      swap1\n      pop\n        /* \"#utility.yul\":9246:9353   */\n      swap3\n      swap2\n      pop\n      pop\n      jump\t// out\n        /* \"#utility.yul\":9359:9752   */\n    tag_112:\n        /* \"#utility.yul\":9428:9434   */\n      0x00\n        /* \"#utility.yul\":9478:9479   */\n      0x08\n        /* \"#utility.yul\":9466:9476   */\n      dup4\n        /* \"#utility.yul\":9462:9480   */\n      mul\n        /* \"#utility.yul\":9501:9598   */\n      tag_234\n        /* \"#utility.yul\":9531:9597   */\n      0xffffffffffffffffffffffffffffffffffffffffffffffffffffffffffffffff\n        /* \"#utility.yul\":9520:9529   */\n      dup3\n        /* \"#utility.yul\":9501:9598   */\n      tag_111\n      jump\t// in\n    tag_234:\n        /* \"#utility.yul\":9619:9658   */\n      tag_235\n        /* \"#utility.yul\":9649:9657   */\n      dup7\n        /* \"#utility.yul\":9638:9647   */\n      dup4\n        /* \"#utility.yul\":9619:9658   */\n      tag_111\n      jump\t// in\n    tag_235:\n        /* \"#utility.yul\":9607:9658   */\n      swap6\n      pop\n        /* \"#utility.yul\":9691:9695   */\n      dup1\n        /* \"#utility.yul\":9687:9696   */\n      not\n        /* \"#utility.yul\":9680:9685   */\n      dup5\n        /* \"#utility.yul\":9676:9697   */\n      and\n        /* \"#utility.yul\":9667:9697   */\n      swap4\n      pop\n        /* \"#utility.yul\":9740:9744   */\n      dup1\n        /* \"#utility.yul\":9730:9738   */\n      dup7\n        /* \"#utility.yul\":9726:9745   */\n      and\n        /* \"#utility.yul\":9719:9724   */\n      dup5\n        /* \"#utility.yul\":9716:9746   */\n      or\n        /* \"#utility.yul\":9706:9746   */\n      swap3\n      pop\n        /* \"#utility.yul\":9435:9752   */\n      pop\n      pop\n        /* \"#utility.yul\":9359:9752   */\n      swap4\n      swap3\n      pop\n      pop\n      pop\n      jump\t// out\n        /* \"#utility.yul\":9758:9818   */\n    tag_113:\n        /* \"#utility.yul\":9786:9789   */\n      0x00\n        /* \"#utility.yul\":9807:9812   */\n      dup2\n        /* \"#utility.yul\":9800:9812   */\n      swap1\n      pop\n        /* \"#utility.yul\":9758:9818   */\n      swap2\n      swap1\n      pop\n      jump\t// out\n        /* \"#utility.yul\":9824:9966   */\n    tag_114:\n        /* \"#utility.yul\":9874:9883   */\n      0x00\n        /* \"#utility.yul\":9907:9960   */\n      tag_238\n        /* \"#utility.yul\":9925:9959   */\n      tag_239\n        /* \"#utility.yul\":9934:9958   */\n      tag_240\n        /* \"#utility.yul\":9952:9957   */\n      dup5\n        /* \"#utility.yul\":9934:9958   */\n      tag_81\n      jump\t// in\n    tag_240:\n        /* \"#utility.yul\":9925:9959   */\n      tag_113\n      jump\t// in\n    tag_239:\n        /* \"#utility.yul\":9907:9960   */\n      tag_81\n      jump\t// in\n    tag_238:\n        /* \"#utility.yul\":9894:9960   */\n      swap1\n      pop\n        /* \"#utility.yul\":9824:9966   */\n      swap2\n      swap1\n      pop\n      jump\t// out\n        /* \"#utility.yul\":9972:10047   */\n    tag_115:\n        /* \"#utility.yul\":10015:10018   */\n      0x00\n        /* \"#utility.yul\":10036:10041   */\n      dup2\n        /* \"#utility.yul\":10029:10041   */\n      swap1\n      pop\n        /* \"#utility.yul\":9972:10047   */\n      swap2\n      swap1\n      pop\n      jump\t// out\n        /* \"#utility.yul\":10053:10322   */\n    tag_116:\n        /* \"#utility.yul\":10163:10202   */\n      tag_243\n        /* \"#utility.yul\":10194:10201   */\n      dup4\n        /* \"#utility.yul\":10163:10202   */\n      tag_114\n      jump\t// in\n    tag_243:\n        /* \"#utility.yul\":10224:10315   */\n      tag_244\n        /* \"#utility.yul\":10273:10314   */\n      tag_245\n        /* \"#utility.yul\":10297:10313   */\n      dup3\n        /* \"#utility.yul\":10273:10314   */\n      tag_115\n      jump\t// in\n    tag_245:\n        /* \"#utility.yul\":10265:10271   */\n      dup5\n        /* \"#utility.yul\":10258:10262   */\n      dup5\n        /* \"#utility.yul\":10252:10263   */\n      sload\n        /* \"#utility.yul\":10224:10315   */\n      tag_112\n      jump\t// in\n    tag_244:\n        /* \"#utility.yul\":10218:10222   */\n      dup3\n        /* \"#utility.yul\":10211:10316   */\n      sstore\n        /* \"#utility.yul\":10129:10322   */\n      pop\n        /* \"#utility.yul\":10053:10322   */\n      pop\n      pop\n      pop\n      jump\t// out\n        /* \"#utility.yul\":10328:10401   */\n    tag_117:\n        /* \"#utility.yul\":10373:10376   */\n      0x00\n        /* \"#utility.yul\":10328:10401   */\n      swap1\n      jump\t// out\n        /* \"#utility.yul\":10407:10596   */\n    tag_118:\n        /* \"#utility.yul\":10484:10516   */\n      tag_248\n      tag_117\n      jump\t// in\n    tag_248:\n        /* \"#utility.yul\":10525:10590   */\n      tag_249\n        /* \"#utility.yul\":10583:10589   */\n      dup2\n        /* \"#utility.yul\":10575:10581   */\n      dup5\n        /* \"#utility.yul\":10569:10573   */\n      dup5\n        /* \"#utility.yul\":10525:10590   */\n      tag_116\n      jump\t// in\n    tag_249:\n        /* \"#utility.yul\":10460:10596   */\n      pop\n        /* \"#utility.yul\":10407:10596   */\n      pop\n      pop\n      jump\t// out\n        /* \"#utility.yul\":10602:10788   */\n    tag_119:\n        /* \"#utility.yul\":10662:10782   */\n    tag_251:\n        /* \"#utility.yul\":10679:10682   */\n      dup2\n        /* \"#utility.yul\":10672:10677   */\n      dup2\n        /* \"#utility.yul\":10669:10683   */\n      lt\n        /* \"#utility.yul\":10662:10782   */\n      iszero\n      tag_253\n      jumpi\n        /* \"#utility.yul\":10733:10772   */\n      tag_254\n        /* \"#utility.yul\":10770:10771   */\n      0x00\n        /* \"#utility.yul\":10763:10768   */\n      dup3\n        /* \"#utility.yul\":10733:10772   */\n      tag_118\n      jump\t// in\n    tag_254:\n        /* \"#utility.yul\":10706:10707   */\n      0x01\n        /* \"#utility.yul\":10699:10704   */\n      dup2\n        /* \"#utility.yul\":10695:10708   */\n      add\n        /* \"#utility.yul\":10686:10708   */\n      swap1\n      pop\n        /* \"#utility.yul\":10662:10782   */\n      jump(tag_251)\n    tag_253:\n        /* \"#utility.yul\":10602:10788   */\n      pop\n      pop\n      jump\t// out\n        /* \"#utility.yul\":10794:11337   */\n    tag_120:\n        /* \"#utility.yul\":10895:10897   */\n      0x1f\n        /* \"#utility.yul\":10890:10893   */\n      dup3\n        /* \"#utility.yul\":10887:10898   */\n      gt\n        /* \"#utility.yul\":10884:11330   */\n      iszero\n      tag_256\n      jumpi\n        /* \"#utility.yul\":10929:10967   */\n      tag_257\n        /* \"#utility.yul\":10961:10966   */\n      dup2\n        /* \"#utility.yul\":10929:10967   */\n      tag_109\n      jump\t// in\n    tag_257:\n        /* \"#utility.yul\":11013:11042   */\n      tag_258\n        /* \"#utility.yul\":11031:11041   */\n      dup5\n        /* \"#utility.yul\":11013:11042   */\n      tag_110\n      jump\t// in\n    tag_258:\n        /* \"#utility.yul\":11003:11011   */\n      dup2\n        /* \"#utility.yul\":10999:11043   */\n      add\n        /* \"#utility.yul\":11196:11198   */\n      0x20\n        /* \"#utility.yul\":11184:11194   */\n      dup6\n        /* \"#utility.yul\":11181:11199   */\n      lt\n        /* \"#utility.yul\":11178:11227   */\n      iszero\n      tag_259\n      jumpi\n        /* \"#utility.yul\":11217:11225   */\n      dup2\n        /* \"#utility.yul\":11202:11225   */\n      swap1\n      pop\n        /* \"#utility.yul\":11178:11227   */\n    tag_259:\n        /* \"#utility.yul\":11240:11320   */\n      tag_260\n        /* \"#utility.yul\":11296:11318   */\n      tag_261\n        /* \"#utility.yul\":11314:11317   */\n      dup6\n        /* \"#utility.yul\":11296:11318   */\n      tag_110\n      jump\t// in\n    tag_261:\n        /* \"#utility.yul\":11286:11294   */\n      dup4\n        /* \"#utility.yul\":11282:11319   */\n      add\n        /* \"#utility.yul\":11269:11280   */\n      dup3\n        /* \"#utility.yul\":11240:11320   */\n      tag_119\n      jump\t// in\n    tag_260:\n        /* \"#utility.yul\":10899:11330   */\n      pop\n      pop\n        /* \"#utility.yul\":10884:11330   */\n    tag_256:\n        /* \"#utility.yul\":10794:11337   */\n      pop\n      pop\n      pop\n      jump\t// out\n        /* \"#utility.yul\":11343:11460   */\n    tag_121:\n        /* \"#utility.yul\":11397:11405   */\n      0x00\n        /* \"#utility.yul\":11447:11452   */\n      dup3\n        /* \"#utility.yul\":11441:11445   */\n      dup3\n        /* \"#utility.yul\":11437:11453   */\n      shr\n        /* \"#utility.yul\":11416:11453   */\n      swap1\n      pop\n        /* \"#utility.yul\":11343:11460   */\n      swap3\n      swap2\n      pop\n      pop\n      jump\t// out\n        /* \"#utility.yul\":11466:11635   */\n    tag_122:\n        /* \"#utility.yul\":11510:11516   */\n      0x00\n        /* \"#utility.yul\":11543:11594   */\n      tag_264\n        /* \"#utility.yul\":11591:11592   */\n      0x00\n        /* \"#utility.yul\":11587:11593   */\n      not\n        /* \"#utility.yul\":11579:11584   */\n      dup5\n        /* \"#utility.yul\":11576:11577   */\n      0x08\n        /* \"#utility.yul\":11572:11585   */\n      mul\n        /* \"#utility.yul\":11543:11594   */\n      tag_121\n      jump\t// in\n    tag_264:\n        /* \"#utility.yul\":11539:11595   */\n      not\n        /* \"#utility.yul\":11624:11628   */\n      dup1\n        /* \"#utility.yul\":11618:11622   */\n      dup4\n        /* \"#utility.yul\":11614:11629   */\n      and\n        /* \"#utility.yul\":11604:11629   */\n      swap2\n      pop\n        /* \"#utility.yul\":11517:11635   */\n      pop\n        /* \"#utility.yul\":11466:11635   */\n      swap3\n      swap2\n      pop\n      pop\n      jump\t// out\n        /* \"#utility.yul\":11640:11935   */\n    tag_123:\n        /* \"#utility.yul\":11716:11720   */\n      0x00\n        /* \"#utility.yul\":11862:11891   */\n      tag_266\n        /* \"#utility.yul\":11887:11890   */\n      dup4\n        /* \"#utility.yul\":11881:11885   */\n      dup4\n        /* \"#utility.yul\":11862:11891   */\n      tag_122\n      jump\t// in\n    tag_266:\n        /* \"#utility.yul\":11854:11891   */\n      swap2\n      pop\n        /* \"#utility.yul\":11924:11927   */\n      dup3\n        /* \"#utility.yul\":11921:11922   */\n      0x02\n        /* \"#utility.yul\":11917:11928   */\n      mul\n        /* \"#utility.yul\":11911:11915   */\n      dup3\n        /* \"#utility.yul\":11908:11929   */\n      or\n        /* \"#utility.yul\":11900:11929   */\n      swap1\n      pop\n        /* \"#utility.yul\":11640:11935   */\n      swap3\n      swap2\n      pop\n      pop\n      jump\t// out\n        /* \"#utility.yul\":11940:13335   */\n    tag_70:\n        /* \"#utility.yul\":12057:12094   */\n      tag_268\n        /* \"#utility.yul\":12090:12093   */\n      dup3\n        /* \"#utility.yul\":12057:12094   */\n      tag_91\n      jump\t// in\n    tag_268:\n        /* \"#utility.yul\":12159:12177   */\n      0xffffffffffffffff\n        /* \"#utility.yul\":12151:12157   */\n      dup2\n        /* \"#utility.yul\":12148:12178   */\n      gt\n        /* \"#utility.yul\":12145:12201   */\n      iszero\n      tag_269\n      jumpi\n        /* \"#utility.yul\":12181:12199   */\n      tag_270\n      tag_99\n      jump\t// in\n    tag_270:\n        /* \"#utility.yul\":12145:12201   */\n    tag_269:\n        /* \"#utility.yul\":12225:12263   */\n      tag_271\n        /* \"#utility.yul\":12257:12261   */\n      dup3\n        /* \"#utility.yul\":12251:12262   */\n      sload\n        /* \"#utility.yul\":12225:12263   */\n      tag_59\n      jump\t// in\n    tag_271:\n        /* \"#utility.yul\":12310:12377   */\n      tag_272\n        /* \"#utility.yul\":12370:12376   */\n      dup3\n        /* \"#utility.yul\":12362:12368   */\n      dup3\n        /* \"#utility.yul\":12356:12360   */\n      dup6\n        /* \"#utility.yul\":12310:12377   */\n      tag_120\n      jump\t// in\n    tag_272:\n        /* \"#utility.yul\":12404:12405   */\n      0x00\n        /* \"#utility.yul\":12428:12432   */\n      0x20\n        /* \"#utility.yul\":12415:12432   */\n      swap1\n      pop\n        /* \"#utility.yul\":12460:12462   */\n      0x1f\n        /* \"#utility.yul\":12452:12458   */\n      dup4\n        /* \"#utility.yul\":12449:12463   */\n      gt\n        /* \"#utility.yul\":12477:12478   */\n      0x01\n        /* \"#utility.yul\":12472:13090   */\n      dup2\n      eq\n      tag_274\n      jumpi\n        /* \"#utility.yul\":13134:13135   */\n      0x00\n        /* \"#utility.yul\":13151:13157   */\n      dup5\n        /* \"#utility.yul\":13148:13225   */\n      iszero\n      tag_275\n      jumpi\n        /* \"#utility.yul\":13200:13209   */\n      dup3\n        /* \"#utility.yul\":13195:13198   */\n      dup8\n        /* \"#utility.yul\":13191:13210   */\n      add\n        /* \"#utility.yul\":13185:13211   */\n      mload\n        /* \"#utility.yul\":13176:13211   */\n      swap1\n      pop\n        /* \"#utility.yul\":13148:13225   */\n    tag_275:\n        /* \"#utility.yul\":13251:13318   */\n      tag_276\n        /* \"#utility.yul\":13311:13317   */\n      dup6\n        /* \"#utility.yul\":13304:13309   */\n      dup3\n        /* \"#utility.yul\":13251:13318   */\n      tag_123\n      jump\t// in\n    tag_276:\n        /* \"#utility.yul\":13245:13249   */\n      dup7\n        /* \"#utility.yul\":13238:13319   */\n      sstore\n        /* \"#utility.yul\":13107:13329   */\n      pop\n        /* \"#utility.yul\":12442:13329   */\n      jump(tag_273)\n        /* \"#utility.yul\":12472:13090   */\n    tag_274:\n        /* \"#utility.yul\":12524:12528   */\n      0x1f\n        /* \"#utility.yul\":12520:12529   */\n      not\n        /* \"#utility.yul\":12512:12518   */\n      dup5\n        /* \"#utility.yul\":12508:12530   */\n      and\n        /* \"#utility.yul\":12558:12595   */\n      tag_277\n        /* \"#utility.yul\":12590:12594   */\n      dup7\n        /* \"#utility.yul\":12558:12595   */\n      tag_109\n      jump\t// in\n    tag_277:\n        /* \"#utility.yul\":12617:12618   */\n      0x00\n        /* \"#utility.yul\":12631:12839   */\n    tag_278:\n        /* \"#utility.yul\":12645:12652   */\n      dup3\n        /* \"#utility.yul\":12642:12643   */\n      dup2\n        /* \"#utility.yul\":12639:12653   */\n      lt\n        /* \"#utility.yul\":12631:12839   */\n      iszero\n      tag_280\n      jumpi\n        /* \"#utility.yul\":12724:12733   */\n      dup5\n        /* \"#utility.yul\":12719:12722   */\n      dup10\n        /* \"#utility.yul\":12715:12734   */\n      add\n        /* \"#utility.yul\":12709:12735   */\n      mload\n        /* \"#utility.yul\":12701:12707   */\n      dup3\n        /* \"#utility.yul\":12694:12736   */\n      sstore\n        /* \"#utility.yul\":12775:12776   */\n      0x01\n        /* \"#utility.yul\":12767:12773   */\n      dup3\n        /* \"#utility.yul\":12763:12777   */\n      add\n        /* \"#utility.yul\":12753:12777   */\n      swap2\n      pop\n        /* \"#utility.yul\":12822:12824   */\n      0x20\n        /* \"#utility.yul\":12811:12820   */\n      dup6\n        /* \"#utility.yul\":12807:12825   */\n      add\n        /* \"#utility.yul\":12794:12825   */\n      swap5\n      pop\n        /* \"#utility.yul\":12668:12672   */\n      0x20\n        /* \"#utility.yul\":12665:12666   */\n      dup2\n        /* \"#utility.yul\":12661:12673   */\n      add\n        /* \"#utility.yul\":12656:12673   */\n      swap1\n      pop\n        /* \"#utility.yul\":12631:12839   */\n      jump(tag_278)\n    tag_280:\n        /* \"#utility.yul\":12867:12873   */\n      dup7\n        /* \"#utility.yul\":12858:12865   */\n      dup4\n        /* \"#utility.yul\":12855:12874   */\n      lt\n        /* \"#utility.yul\":12852:13031   */\n      iszero\n      tag_281\n      jumpi\n        /* \"#utility.yul\":12925:12934   */\n      dup5\n        /* \"#utility.yul\":12920:12923   */\n      dup10\n        /* \"#utility.yul\":12916:12935   */\n      add\n        /* \"#utility.yul\":12910:12936   */\n      mload\n        /* \"#utility.yul\":12968:13016   */\n      tag_282\n        /* \"#utility.yul\":13010:13014   */\n      0x1f\n        /* \"#utility.yul\":13002:13008   */\n      dup10\n        /* \"#utility.yul\":12998:13015   */\n      and\n        /* \"#utility.yul\":12987:12996   */\n      dup3\n        /* \"#utility.yul\":12968:13016   */\n      tag_122\n      jump\t// in\n    tag_282:\n        /* \"#utility.yul\":12960:12966   */\n      dup4\n        /* \"#utility.yul\":12953:13017   */\n      sstore\n        /* \"#utility.yul\":12875:13031   */\n      pop\n        /* \"#utility.yul\":12852:13031   */\n    tag_281:\n        /* \"#utility.yul\":13077:13078   */\n      0x01\n        /* \"#utility.yul\":13073:13074   */\n      0x02\n        /* \"#utility.yul\":13065:13071   */\n      dup9\n        /* \"#utility.yul\":13061:13075   */\n      mul\n        /* \"#utility.yul\":13057:13079   */\n      add\n        /* \"#utility.yul\":13051:13055   */\n      dup9\n        /* \"#utility.yul\":13044:13080   */\n      sstore\n        /* \"#utility.yul\":12479:13090   */\n      pop\n      pop\n      pop\n        /* \"#utility.yul\":12442:13329   */\n    tag_273:\n      pop\n        /* \"#utility.yul\":12032:13335   */\n      pop\n      pop\n      pop\n        /* \"#utility.yul\":11940:13335   */\n      pop\n      pop\n      jump\t// out\n\n    auxdata: 0xa2646970667358221220989846ef48586dcbf9559ef64f1bc6a82cab2ddebdd1815e69a10facefd29df164736f6c63430008110033\n}\n",
				"bytecode": {
					"linkReferences": {},
					"object": "6080604052600060035560006005553480156200001b57600080fd5b506040516200109138038062001091833981810160405281019062000041919062000135565b806000806101000a81548173ffffffffffffffffffffffffffffffffffffffff021916908373ffffffffffffffffffffffffffffffffffffffff1602179055508160018190555050506200017c565b600080fd5b6000819050919050565b620000aa8162000095565b8114620000b657600080fd5b50565b600081519050620000ca816200009f565b92915050565b600073ffffffffffffffffffffffffffffffffffffffff82169050919050565b6000620000fd82620000d0565b9050919050565b6200010f81620000f0565b81146200011b57600080fd5b50565b6000815190506200012f8162000104565b92915050565b600080604083850312156200014f576200014e62000090565b5b60006200015f85828601620000b9565b925050602062000172858286016200011e565b9150509250929050565b610f05806200018c6000396000f3fe60806040526004361061007b5760003560e01c80638a9cfd551161004e5780638a9cfd5514610145578063937e09b11461016e578063d7bb99ba14610199578063d7d1bbdb146101a35761007b565b806303441006146100805780630a1443911461009c578063481c6a75146100d957806381d12c5814610104575b600080fd5b61009a6004803603810190610095919061074a565b6101cc565b005b3480156100a857600080fd5b506100c360048036038101906100be91906107d5565b6102fd565b6040516100d0919061081d565b60405180910390f35b3480156100e557600080fd5b506100ee61031d565b6040516100fb9190610847565b60405180910390f35b34801561011057600080fd5b5061012b6004803603810190610126919061074a565b610341565b60405161013c959493929190610901565b60405180910390f35b34801561015157600080fd5b5061016c60048036038101906101679190610a90565b61042c565b005b34801561017a57600080fd5b5061018361053c565b6040516101909190610aff565b60405180910390f35b6101a1610542565b005b3480156101af57600080fd5b506101ca60048036038101906101c5919061074a565b6105c2565b005b60008054906101000a900473ffffffffffffffffffffffffffffffffffffffff1673ffffffffffffffffffffffffffffffffffffffff163373ffffffffffffffffffffffffffffffffffffffff161461022457600080fd5b60006004600083815260200190815260200160002090508060020160149054906101000a900460ff161561025757600080fd5b60026005546102669190610b78565b81600301541161027557600080fd5b8060020160009054906101000a900473ffffffffffffffffffffffffffffffffffffffff1673ffffffffffffffffffffffffffffffffffffffff166108fc82600101549081150290604051600060405180830381858888f193505050501580156102e3573d6000803e3d6000fd5b50600115158160020160149054906101000a905050505050565b60026020528060005260406000206000915054906101000a900460ff1681565b60008054906101000a900473ffffffffffffffffffffffffffffffffffffffff1681565b600460205280600052604060002060009150905080600001805461036490610bd8565b80601f016020809104026020016040519081016040528092919081815260200182805461039090610bd8565b80156103dd5780601f106103b2576101008083540402835291602001916103dd565b820191906000526020600020905b8154815290600101906020018083116103c057829003601f168201915b5050505050908060010154908060020160009054906101000a900473ffffffffffffffffffffffffffffffffffffffff16908060020160149054906101000a900460ff16908060030154905085565b60008054906101000a900473ffffffffffffffffffffffffffffffffffffffff1673ffffffffffffffffffffffffffffffffffffffff163373ffffffffffffffffffffffffffffffffffffffff161461048457600080fd5b6000600460006003600081548092919061049d90610c09565b9190505581526020019081526020016000209050838160000190816104c29190610dfd565b50828160010181905550818160020160006101000a81548173ffffffffffffffffffffffffffffffffffffffff021916908373ffffffffffffffffffffffffffffffffffffffff16021790555060008160020160146101000a81548160ff0219169083151502179055506000816003018190555050505050565b60015481565b600154341161055057600080fd5b6001600260003373ffffffffffffffffffffffffffffffffffffffff1673ffffffffffffffffffffffffffffffffffffffff16815260200190815260200160002060006101000a81548160ff021916908315150217905550600560008154809291906105bb90610c09565b9190505550565b6000600460008381526020019081526020016000209050600260003373ffffffffffffffffffffffffffffffffffffffff1673ffffffffffffffffffffffffffffffffffffffff16815260200190815260200160002060009054906101000a900460ff1661062f57600080fd5b8060040160003373ffffffffffffffffffffffffffffffffffffffff1673ffffffffffffffffffffffffffffffffffffffff16815260200190815260200160002060009054906101000a900460ff161561068857600080fd5b60018160040160003373ffffffffffffffffffffffffffffffffffffffff1673ffffffffffffffffffffffffffffffffffffffff16815260200190815260200160002060006101000a81548160ff0219169083151502179055508060030160008154809291906106f790610c09565b91905055505050565b6000604051905090565b600080fd5b600080fd5b6000819050919050565b61072781610714565b811461073257600080fd5b50565b6000813590506107448161071e565b92915050565b6000602082840312156107605761075f61070a565b5b600061076e84828501610735565b91505092915050565b600073ffffffffffffffffffffffffffffffffffffffff82169050919050565b60006107a282610777565b9050919050565b6107b281610797565b81146107bd57600080fd5b50565b6000813590506107cf816107a9565b92915050565b6000602082840312156107eb576107ea61070a565b5b60006107f9848285016107c0565b91505092915050565b60008115159050919050565b61081781610802565b82525050565b6000602082019050610832600083018461080e565b92915050565b61084181610797565b82525050565b600060208201905061085c6000830184610838565b92915050565b600081519050919050565b600082825260208201905092915050565b60005b8381101561089c578082015181840152602081019050610881565b60008484015250505050565b6000601f19601f8301169050919050565b60006108c482610862565b6108ce818561086d565b93506108de81856020860161087e565b6108e7816108a8565b840191505092915050565b6108fb81610714565b82525050565b600060a082019050818103600083015261091b81886108b9565b905061092a60208301876108f2565b6109376040830186610838565b610944606083018561080e565b61095160808301846108f2565b9695505050505050565b600080fd5b600080fd5b7f4e487b7100000000000000000000000000000000000000000000000000000000600052604160045260246000fd5b61099d826108a8565b810181811067ffffffffffffffff821117156109bc576109bb610965565b5b80604052505050565b60006109cf610700565b90506109db8282610994565b919050565b600067ffffffffffffffff8211156109fb576109fa610965565b5b610a04826108a8565b9050602081019050919050565b82818337600083830152505050565b6000610a33610a2e846109e0565b6109c5565b905082815260208101848484011115610a4f57610a4e610960565b5b610a5a848285610a11565b509392505050565b600082601f830112610a7757610a7661095b565b5b8135610a87848260208601610a20565b91505092915050565b600080600060608486031215610aa957610aa861070a565b5b600084013567ffffffffffffffff811115610ac757610ac661070f565b5b610ad386828701610a62565b9350506020610ae486828701610735565b9250506040610af5868287016107c0565b9150509250925092565b6000602082019050610b1460008301846108f2565b92915050565b7f4e487b7100000000000000000000000000000000000000000000000000000000600052601260045260246000fd5b7f4e487b7100000000000000000000000000000000000000000000000000000000600052601160045260246000fd5b6000610b8382610714565b9150610b8e83610714565b925082610b9e57610b9d610b1a565b5b828204905092915050565b7f4e487b7100000000000000000000000000000000000000000000000000000000600052602260045260246000fd5b60006002820490506001821680610bf057607f821691505b602082108103610c0357610c02610ba9565b5b50919050565b6000610c1482610714565b91507fffffffffffffffffffffffffffffffffffffffffffffffffffffffffffffffff8203610c4657610c45610b49565b5b600182019050919050565b60008190508160005260206000209050919050565b60006020601f8301049050919050565b600082821b905092915050565b600060088302610cb37fffffffffffffffffffffffffffffffffffffffffffffffffffffffffffffffff82610c76565b610cbd8683610c76565b95508019841693508086168417925050509392505050565b6000819050919050565b6000610cfa610cf5610cf084610714565b610cd5565b610714565b9050919050565b6000819050919050565b610d1483610cdf565b610d28610d2082610d01565b848454610c83565b825550505050565b600090565b610d3d610d30565b610d48818484610d0b565b505050565b5b81811015610d6c57610d61600082610d35565b600181019050610d4e565b5050565b601f821115610db157610d8281610c51565b610d8b84610c66565b81016020851015610d9a578190505b610dae610da685610c66565b830182610d4d565b50505b505050565b600082821c905092915050565b6000610dd460001984600802610db6565b1980831691505092915050565b6000610ded8383610dc3565b9150826002028217905092915050565b610e0682610862565b67ffffffffffffffff811115610e1f57610e1e610965565b5b610e298254610bd8565b610e34828285610d70565b600060209050601f831160018114610e675760008415610e55578287015190505b610e5f8582610de1565b865550610ec7565b601f198416610e7586610c51565b60005b82811015610e9d57848901518255600182019150602085019450602081019050610e78565b86831015610eba5784890151610eb6601f891682610dc3565b8355505b6001600288020188555050505b50505050505056fea2646970667358221220989846ef48586dcbf9559ef64f1bc6a82cab2ddebdd1815e69a10facefd29df164736f6c63430008110033",
					"opcodes": "PUSH1 0x80 PUSH1 0x40 MSTORE PUSH1 0x0 PUSH1 0x3 SSTORE PUSH1 0x0 PUSH1 0x5 SSTORE CALLVALUE DUP1 ISZERO PUSH3 0x1B JUMPI PUSH1 0x0 DUP1 REVERT JUMPDEST POP PUSH1 0x40 MLOAD PUSH3 0x1091 CODESIZE SUB DUP1 PUSH3 0x1091 DUP4 CODECOPY DUP2 DUP2 ADD PUSH1 0x40 MSTORE DUP2 ADD SWAP1 PUSH3 0x41 SWAP2 SWAP1 PUSH3 0x135 JUMP JUMPDEST DUP1 PUSH1 0x0 DUP1 PUSH2 0x100 EXP DUP2 SLOAD DUP2 PUSH20 0xFFFFFFFFFFFFFFFFFFFFFFFFFFFFFFFFFFFFFFFF MUL NOT AND SWAP1 DUP4 PUSH20 0xFFFFFFFFFFFFFFFFFFFFFFFFFFFFFFFFFFFFFFFF AND MUL OR SWAP1 SSTORE POP DUP2 PUSH1 0x1 DUP2 SWAP1 SSTORE POP POP POP PUSH3 0x17C JUMP JUMPDEST PUSH1 0x0 DUP1 REVERT JUMPDEST PUSH1 0x0 DUP2 SWAP1 POP SWAP2 SWAP1 POP JUMP JUMPDEST PUSH3 0xAA DUP2 PUSH3 0x95 JUMP JUMPDEST DUP2 EQ PUSH3 0xB6 JUMPI PUSH1 0x0 DUP1 REVERT JUMPDEST POP JUMP JUMPDEST PUSH1 0x0 DUP2 MLOAD SWAP1 POP PUSH3 0xCA DUP2 PUSH3 0x9F JUMP JUMPDEST SWAP3 SWAP2 POP POP JUMP JUMPDEST PUSH1 0x0 PUSH20 0xFFFFFFFFFFFFFFFFFFFFFFFFFFFFFFFFFFFFFFFF DUP3 AND SWAP1 POP SWAP2 SWAP1 POP JUMP JUMPDEST PUSH1 0x0 PUSH3 0xFD DUP3 PUSH3 0xD0 JUMP JUMPDEST SWAP1 POP SWAP2 SWAP1 POP JUMP JUMPDEST PUSH3 0x10F DUP2 PUSH3 0xF0 JUMP JUMPDEST DUP2 EQ PUSH3 0x11B JUMPI PUSH1 0x0 DUP1 REVERT JUMPDEST POP JUMP JUMPDEST PUSH1 0x0 DUP2 MLOAD SWAP1 POP PUSH3 0x12F DUP2 PUSH3 0x104 JUMP JUMPDEST SWAP3 SWAP2 POP POP JUMP JUMPDEST PUSH1 0x0 DUP1 PUSH1 0x40 DUP4 DUP6 SUB SLT ISZERO PUSH3 0x14F JUMPI PUSH3 0x14E PUSH3 0x90 JUMP JUMPDEST JUMPDEST PUSH1 0x0 PUSH3 0x15F DUP6 DUP3 DUP7 ADD PUSH3 0xB9 JUMP JUMPDEST SWAP3 POP POP PUSH1 0x20 PUSH3 0x172 DUP6 DUP3 DUP7 ADD PUSH3 0x11E JUMP JUMPDEST SWAP2 POP POP SWAP3 POP SWAP3 SWAP1 POP JUMP JUMPDEST PUSH2 0xF05 DUP1 PUSH3 0x18C PUSH1 0x0 CODECOPY PUSH1 0x0 RETURN INVALID PUSH1 0x80 PUSH1 0x40 MSTORE PUSH1 0x4 CALLDATASIZE LT PUSH2 0x7B JUMPI PUSH1 0x0 CALLDATALOAD PUSH1 0xE0 SHR DUP1 PUSH4 0x8A9CFD55 GT PUSH2 0x4E JUMPI DUP1 PUSH4 0x8A9CFD55 EQ PUSH2 0x145 JUMPI DUP1 PUSH4 0x937E09B1 EQ PUSH2 0x16E JUMPI DUP1 PUSH4 0xD7BB99BA EQ PUSH2 0x199 JUMPI DUP1 PUSH4 0xD7D1BBDB EQ PUSH2 0x1A3 JUMPI PUSH2 0x7B JUMP JUMPDEST DUP1 PUSH4 0x3441006 EQ PUSH2 0x80 JUMPI DUP1 PUSH4 0xA144391 EQ PUSH2 0x9C JUMPI DUP1 PUSH4 0x481C6A75 EQ PUSH2 0xD9 JUMPI DUP1 PUSH4 0x81D12C58 EQ PUSH2 0x104 JUMPI JUMPDEST PUSH1 0x0 DUP1 REVERT JUMPDEST PUSH2 0x9A PUSH1 0x4 DUP1 CALLDATASIZE SUB DUP2 ADD SWAP1 PUSH2 0x95 SWAP2 SWAP1 PUSH2 0x74A JUMP JUMPDEST PUSH2 0x1CC JUMP JUMPDEST STOP JUMPDEST CALLVALUE DUP1 ISZERO PUSH2 0xA8 JUMPI PUSH1 0x0 DUP1 REVERT JUMPDEST POP PUSH2 0xC3 PUSH1 0x4 DUP1 CALLDATASIZE SUB DUP2 ADD SWAP1 PUSH2 0xBE SWAP2 SWAP1 PUSH2 0x7D5 JUMP JUMPDEST PUSH2 0x2FD JUMP JUMPDEST PUSH1 0x40 MLOAD PUSH2 0xD0 SWAP2 SWAP1 PUSH2 0x81D JUMP JUMPDEST PUSH1 0x40 MLOAD DUP1 SWAP2 SUB SWAP1 RETURN JUMPDEST CALLVALUE DUP1 ISZERO PUSH2 0xE5 JUMPI PUSH1 0x0 DUP1 REVERT JUMPDEST POP PUSH2 0xEE PUSH2 0x31D JUMP JUMPDEST PUSH1 0x40 MLOAD PUSH2 0xFB SWAP2 SWAP1 PUSH2 0x847 JUMP JUMPDEST PUSH1 0x40 MLOAD DUP1 SWAP2 SUB SWAP1 RETURN JUMPDEST CALLVALUE DUP1 ISZERO PUSH2 0x110 JUMPI PUSH1 0x0 DUP1 REVERT JUMPDEST POP PUSH2 0x12B PUSH1 0x4 DUP1 CALLDATASIZE SUB DUP2 ADD SWAP1 PUSH2 0x126 SWAP2 SWAP1 PUSH2 0x74A JUMP JUMPDEST PUSH2 0x341 JUMP JUMPDEST PUSH1 0x40 MLOAD PUSH2 0x13C SWAP6 SWAP5 SWAP4 SWAP3 SWAP2 SWAP1 PUSH2 0x901 JUMP JUMPDEST PUSH1 0x40 MLOAD DUP1 SWAP2 SUB SWAP1 RETURN JUMPDEST CALLVALUE DUP1 ISZERO PUSH2 0x151 JUMPI PUSH1 0x0 DUP1 REVERT JUMPDEST POP PUSH2 0x16C PUSH1 0x4 DUP1 CALLDATASIZE SUB DUP2 ADD SWAP1 PUSH2 0x167 SWAP2 SWAP1 PUSH2 0xA90 JUMP JUMPDEST PUSH2 0x42C JUMP JUMPDEST STOP JUMPDEST CALLVALUE DUP1 ISZERO PUSH2 0x17A JUMPI PUSH1 0x0 DUP1 REVERT JUMPDEST POP PUSH2 0x183 PUSH2 0x53C JUMP JUMPDEST PUSH1 0x40 MLOAD PUSH2 0x190 SWAP2 SWAP1 PUSH2 0xAFF JUMP JUMPDEST PUSH1 0x40 MLOAD DUP1 SWAP2 SUB SWAP1 RETURN JUMPDEST PUSH2 0x1A1 PUSH2 0x542 JUMP JUMPDEST STOP JUMPDEST CALLVALUE DUP1 ISZERO PUSH2 0x1AF JUMPI PUSH1 0x0 DUP1 REVERT JUMPDEST POP PUSH2 0x1CA PUSH1 0x4 DUP1 CALLDATASIZE SUB DUP2 ADD SWAP1 PUSH2 0x1C5 SWAP2 SWAP1 PUSH2 0x74A JUMP JUMPDEST PUSH2 0x5C2 JUMP JUMPDEST STOP JUMPDEST PUSH1 0x0 DUP1 SLOAD SWAP1 PUSH2 0x100 EXP SWAP1 DIV PUSH20 0xFFFFFFFFFFFFFFFFFFFFFFFFFFFFFFFFFFFFFFFF AND PUSH20 0xFFFFFFFFFFFFFFFFFFFFFFFFFFFFFFFFFFFFFFFF AND CALLER PUSH20 0xFFFFFFFFFFFFFFFFFFFFFFFFFFFFFFFFFFFFFFFF AND EQ PUSH2 0x224 JUMPI PUSH1 0x0 DUP1 REVERT JUMPDEST PUSH1 0x0 PUSH1 0x4 PUSH1 0x0 DUP4 DUP2 MSTORE PUSH1 0x20 ADD SWAP1 DUP2 MSTORE PUSH1 0x20 ADD PUSH1 0x0 KECCAK256 SWAP1 POP DUP1 PUSH1 0x2 ADD PUSH1 0x14 SWAP1 SLOAD SWAP1 PUSH2 0x100 EXP SWAP1 DIV PUSH1 0xFF AND ISZERO PUSH2 0x257 JUMPI PUSH1 0x0 DUP1 REVERT JUMPDEST PUSH1 0x2 PUSH1 0x5 SLOAD PUSH2 0x266 SWAP2 SWAP1 PUSH2 0xB78 JUMP JUMPDEST DUP2 PUSH1 0x3 ADD SLOAD GT PUSH2 0x275 JUMPI PUSH1 0x0 DUP1 REVERT JUMPDEST DUP1 PUSH1 0x2 ADD PUSH1 0x0 SWAP1 SLOAD SWAP1 PUSH2 0x100 EXP SWAP1 DIV PUSH20 0xFFFFFFFFFFFFFFFFFFFFFFFFFFFFFFFFFFFFFFFF AND PUSH20 0xFFFFFFFFFFFFFFFFFFFFFFFFFFFFFFFFFFFFFFFF AND PUSH2 0x8FC DUP3 PUSH1 0x1 ADD SLOAD SWAP1 DUP2 ISZERO MUL SWAP1 PUSH1 0x40 MLOAD PUSH1 0x0 PUSH1 0x40 MLOAD DUP1 DUP4 SUB DUP2 DUP6 DUP9 DUP9 CALL SWAP4 POP POP POP POP ISZERO DUP1 ISZERO PUSH2 0x2E3 JUMPI RETURNDATASIZE PUSH1 0x0 DUP1 RETURNDATACOPY RETURNDATASIZE PUSH1 0x0 REVERT JUMPDEST POP PUSH1 0x1 ISZERO ISZERO DUP2 PUSH1 0x2 ADD PUSH1 0x14 SWAP1 SLOAD SWAP1 PUSH2 0x100 EXP SWAP1 POP POP POP POP POP JUMP JUMPDEST PUSH1 0x2 PUSH1 0x20 MSTORE DUP1 PUSH1 0x0 MSTORE PUSH1 0x40 PUSH1 0x0 KECCAK256 PUSH1 0x0 SWAP2 POP SLOAD SWAP1 PUSH2 0x100 EXP SWAP1 DIV PUSH1 0xFF AND DUP2 JUMP JUMPDEST PUSH1 0x0 DUP1 SLOAD SWAP1 PUSH2 0x100 EXP SWAP1 DIV PUSH20 0xFFFFFFFFFFFFFFFFFFFFFFFFFFFFFFFFFFFFFFFF AND DUP2 JUMP JUMPDEST PUSH1 0x4 PUSH1 0x20 MSTORE DUP1 PUSH1 0x0 MSTORE PUSH1 0x40 PUSH1 0x0 KECCAK256 PUSH1 0x0 SWAP2 POP SWAP1 POP DUP1 PUSH1 0x0 ADD DUP1 SLOAD PUSH2 0x364 SWAP1 PUSH2 0xBD8 JUMP JUMPDEST DUP1 PUSH1 0x1F ADD PUSH1 0x20 DUP1 SWAP2 DIV MUL PUSH1 0x20 ADD PUSH1 0x40 MLOAD SWAP1 DUP2 ADD PUSH1 0x40 MSTORE DUP1 SWAP3 SWAP2 SWAP1 DUP2 DUP2 MSTORE PUSH1 0x20 ADD DUP3 DUP1 SLOAD PUSH2 0x390 SWAP1 PUSH2 0xBD8 JUMP JUMPDEST DUP1 ISZERO PUSH2 0x3DD JUMPI DUP1 PUSH1 0x1F LT PUSH2 0x3B2 JUMPI PUSH2 0x100 DUP1 DUP4 SLOAD DIV MUL DUP4 MSTORE SWAP2 PUSH1 0x20 ADD SWAP2 PUSH2 0x3DD JUMP JUMPDEST DUP3 ADD SWAP2 SWAP1 PUSH1 0x0 MSTORE PUSH1 0x20 PUSH1 0x0 KECCAK256 SWAP1 JUMPDEST DUP2 SLOAD DUP2 MSTORE SWAP1 PUSH1 0x1 ADD SWAP1 PUSH1 0x20 ADD DUP1 DUP4 GT PUSH2 0x3C0 JUMPI DUP3 SWAP1 SUB PUSH1 0x1F AND DUP3 ADD SWAP2 JUMPDEST POP POP POP POP POP SWAP1 DUP1 PUSH1 0x1 ADD SLOAD SWAP1 DUP1 PUSH1 0x2 ADD PUSH1 0x0 SWAP1 SLOAD SWAP1 PUSH2 0x100 EXP SWAP1 DIV PUSH20 0xFFFFFFFFFFFFFFFFFFFFFFFFFFFFFFFFFFFFFFFF AND SWAP1 DUP1 PUSH1 0x2 ADD PUSH1 0x14 SWAP1 SLOAD SWAP1 PUSH2 0x100 EXP SWAP1 DIV PUSH1 0xFF AND SWAP1 DUP1 PUSH1 0x3 ADD SLOAD SWAP1 POP DUP6 JUMP JUMPDEST PUSH1 0x0 DUP1 SLOAD SWAP1 PUSH2 0x100 EXP SWAP1 DIV PUSH20 0xFFFFFFFFFFFFFFFFFFFFFFFFFFFFFFFFFFFFFFFF AND PUSH20 0xFFFFFFFFFFFFFFFFFFFFFFFFFFFFFFFFFFFFFFFF AND CALLER PUSH20 0xFFFFFFFFFFFFFFFFFFFFFFFFFFFFFFFFFFFFFFFF AND EQ PUSH2 0x484 JUMPI PUSH1 0x0 DUP1 REVERT JUMPDEST PUSH1 0x0 PUSH1 0x4 PUSH1 0x0 PUSH1 0x3 PUSH1 0x0 DUP2 SLOAD DUP1 SWAP3 SWAP2 SWAP1 PUSH2 0x49D SWAP1 PUSH2 0xC09 JUMP JUMPDEST SWAP2 SWAP1 POP SSTORE DUP2 MSTORE PUSH1 0x20 ADD SWAP1 DUP2 MSTORE PUSH1 0x20 ADD PUSH1 0x0 KECCAK256 SWAP1 POP DUP4 DUP2 PUSH1 0x0 ADD SWAP1 DUP2 PUSH2 0x4C2 SWAP2 SWAP1 PUSH2 0xDFD JUMP JUMPDEST POP DUP3 DUP2 PUSH1 0x1 ADD DUP2 SWAP1 SSTORE POP DUP2 DUP2 PUSH1 0x2 ADD PUSH1 0x0 PUSH2 0x100 EXP DUP2 SLOAD DUP2 PUSH20 0xFFFFFFFFFFFFFFFFFFFFFFFFFFFFFFFFFFFFFFFF MUL NOT AND SWAP1 DUP4 PUSH20 0xFFFFFFFFFFFFFFFFFFFFFFFFFFFFFFFFFFFFFFFF AND MUL OR SWAP1 SSTORE POP PUSH1 0x0 DUP2 PUSH1 0x2 ADD PUSH1 0x14 PUSH2 0x100 EXP DUP2 SLOAD DUP2 PUSH1 0xFF MUL NOT AND SWAP1 DUP4 ISZERO ISZERO MUL OR SWAP1 SSTORE POP PUSH1 0x0 DUP2 PUSH1 0x3 ADD DUP2 SWAP1 SSTORE POP POP POP POP POP JUMP JUMPDEST PUSH1 0x1 SLOAD DUP2 JUMP JUMPDEST PUSH1 0x1 SLOAD CALLVALUE GT PUSH2 0x550 JUMPI PUSH1 0x0 DUP1 REVERT JUMPDEST PUSH1 0x1 PUSH1 0x2 PUSH1 0x0 CALLER PUSH20 0xFFFFFFFFFFFFFFFFFFFFFFFFFFFFFFFFFFFFFFFF AND PUSH20 0xFFFFFFFFFFFFFFFFFFFFFFFFFFFFFFFFFFFFFFFF AND DUP2 MSTORE PUSH1 0x20 ADD SWAP1 DUP2 MSTORE PUSH1 0x20 ADD PUSH1 0x0 KECCAK256 PUSH1 0x0 PUSH2 0x100 EXP DUP2 SLOAD DUP2 PUSH1 0xFF MUL NOT AND SWAP1 DUP4 ISZERO ISZERO MUL OR SWAP1 SSTORE POP PUSH1 0x5 PUSH1 0x0 DUP2 SLOAD DUP1 SWAP3 SWAP2 SWAP1 PUSH2 0x5BB SWAP1 PUSH2 0xC09 JUMP JUMPDEST SWAP2 SWAP1 POP SSTORE POP JUMP JUMPDEST PUSH1 0x0 PUSH1 0x4 PUSH1 0x0 DUP4 DUP2 MSTORE PUSH1 0x20 ADD SWAP1 DUP2 MSTORE PUSH1 0x20 ADD PUSH1 0x0 KECCAK256 SWAP1 POP PUSH1 0x2 PUSH1 0x0 CALLER PUSH20 0xFFFFFFFFFFFFFFFFFFFFFFFFFFFFFFFFFFFFFFFF AND PUSH20 0xFFFFFFFFFFFFFFFFFFFFFFFFFFFFFFFFFFFFFFFF AND DUP2 MSTORE PUSH1 0x20 ADD SWAP1 DUP2 MSTORE PUSH1 0x20 ADD PUSH1 0x0 KECCAK256 PUSH1 0x0 SWAP1 SLOAD SWAP1 PUSH2 0x100 EXP SWAP1 DIV PUSH1 0xFF AND PUSH2 0x62F JUMPI PUSH1 0x0 DUP1 REVERT JUMPDEST DUP1 PUSH1 0x4 ADD PUSH1 0x0 CALLER PUSH20 0xFFFFFFFFFFFFFFFFFFFFFFFFFFFFFFFFFFFFFFFF AND PUSH20 0xFFFFFFFFFFFFFFFFFFFFFFFFFFFFFFFFFFFFFFFF AND DUP2 MSTORE PUSH1 0x20 ADD SWAP1 DUP2 MSTORE PUSH1 0x20 ADD PUSH1 0x0 KECCAK256 PUSH1 0x0 SWAP1 SLOAD SWAP1 PUSH2 0x100 EXP SWAP1 DIV PUSH1 0xFF AND ISZERO PUSH2 0x688 JUMPI PUSH1 0x0 DUP1 REVERT JUMPDEST PUSH1 0x1 DUP2 PUSH1 0x4 ADD PUSH1 0x0 CALLER PUSH20 0xFFFFFFFFFFFFFFFFFFFFFFFFFFFFFFFFFFFFFFFF AND PUSH20 0xFFFFFFFFFFFFFFFFFFFFFFFFFFFFFFFFFFFFFFFF AND DUP2 MSTORE PUSH1 0x20 ADD SWAP1 DUP2 MSTORE PUSH1 0x20 ADD PUSH1 0x0 KECCAK256 PUSH1 0x0 PUSH2 0x100 EXP DUP2 SLOAD DUP2 PUSH1 0xFF MUL NOT AND SWAP1 DUP4 ISZERO ISZERO MUL OR SWAP1 SSTORE POP DUP1 PUSH1 0x3 ADD PUSH1 0x0 DUP2 SLOAD DUP1 SWAP3 SWAP2 SWAP1 PUSH2 0x6F7 SWAP1 PUSH2 0xC09 JUMP JUMPDEST SWAP2 SWAP1 POP SSTORE POP POP POP JUMP JUMPDEST PUSH1 0x0 PUSH1 0x40 MLOAD SWAP1 POP SWAP1 JUMP JUMPDEST PUSH1 0x0 DUP1 REVERT JUMPDEST PUSH1 0x0 DUP1 REVERT JUMPDEST PUSH1 0x0 DUP2 SWAP1 POP SWAP2 SWAP1 POP JUMP JUMPDEST PUSH2 0x727 DUP2 PUSH2 0x714 JUMP JUMPDEST DUP2 EQ PUSH2 0x732 JUMPI PUSH1 0x0 DUP1 REVERT JUMPDEST POP JUMP JUMPDEST PUSH1 0x0 DUP2 CALLDATALOAD SWAP1 POP PUSH2 0x744 DUP2 PUSH2 0x71E JUMP JUMPDEST SWAP3 SWAP2 POP POP JUMP JUMPDEST PUSH1 0x0 PUSH1 0x20 DUP3 DUP5 SUB SLT ISZERO PUSH2 0x760 JUMPI PUSH2 0x75F PUSH2 0x70A JUMP JUMPDEST JUMPDEST PUSH1 0x0 PUSH2 0x76E DUP5 DUP3 DUP6 ADD PUSH2 0x735 JUMP JUMPDEST SWAP2 POP POP SWAP3 SWAP2 POP POP JUMP JUMPDEST PUSH1 0x0 PUSH20 0xFFFFFFFFFFFFFFFFFFFFFFFFFFFFFFFFFFFFFFFF DUP3 AND SWAP1 POP SWAP2 SWAP1 POP JUMP JUMPDEST PUSH1 0x0 PUSH2 0x7A2 DUP3 PUSH2 0x777 JUMP JUMPDEST SWAP1 POP SWAP2 SWAP1 POP JUMP JUMPDEST PUSH2 0x7B2 DUP2 PUSH2 0x797 JUMP JUMPDEST DUP2 EQ PUSH2 0x7BD JUMPI PUSH1 0x0 DUP1 REVERT JUMPDEST POP JUMP JUMPDEST PUSH1 0x0 DUP2 CALLDATALOAD SWAP1 POP PUSH2 0x7CF DUP2 PUSH2 0x7A9 JUMP JUMPDEST SWAP3 SWAP2 POP POP JUMP JUMPDEST PUSH1 0x0 PUSH1 0x20 DUP3 DUP5 SUB SLT ISZERO PUSH2 0x7EB JUMPI PUSH2 0x7EA PUSH2 0x70A JUMP JUMPDEST JUMPDEST PUSH1 0x0 PUSH2 0x7F9 DUP5 DUP3 DUP6 ADD PUSH2 0x7C0 JUMP JUMPDEST SWAP2 POP POP SWAP3 SWAP2 POP POP JUMP JUMPDEST PUSH1 0x0 DUP2 ISZERO ISZERO SWAP1 POP SWAP2 SWAP1 POP JUMP JUMPDEST PUSH2 0x817 DUP2 PUSH2 0x802 JUMP JUMPDEST DUP3 MSTORE POP POP JUMP JUMPDEST PUSH1 0x0 PUSH1 0x20 DUP3 ADD SWAP1 POP PUSH2 0x832 PUSH1 0x0 DUP4 ADD DUP5 PUSH2 0x80E JUMP JUMPDEST SWAP3 SWAP2 POP POP JUMP JUMPDEST PUSH2 0x841 DUP2 PUSH2 0x797 JUMP JUMPDEST DUP3 MSTORE POP POP JUMP JUMPDEST PUSH1 0x0 PUSH1 0x20 DUP3 ADD SWAP1 POP PUSH2 0x85C PUSH1 0x0 DUP4 ADD DUP5 PUSH2 0x838 JUMP JUMPDEST SWAP3 SWAP2 POP POP JUMP JUMPDEST PUSH1 0x0 DUP2 MLOAD SWAP1 POP SWAP2 SWAP1 POP JUMP JUMPDEST PUSH1 0x0 DUP3 DUP3 MSTORE PUSH1 0x20 DUP3 ADD SWAP1 POP SWAP3 SWAP2 POP POP JUMP JUMPDEST PUSH1 0x0 JUMPDEST DUP4 DUP2 LT ISZERO PUSH2 0x89C JUMPI DUP1 DUP3 ADD MLOAD DUP2 DUP5 ADD MSTORE PUSH1 0x20 DUP2 ADD SWAP1 POP PUSH2 0x881 JUMP JUMPDEST PUSH1 0x0 DUP5 DUP5 ADD MSTORE POP POP POP POP JUMP JUMPDEST PUSH1 0x0 PUSH1 0x1F NOT PUSH1 0x1F DUP4 ADD AND SWAP1 POP SWAP2 SWAP1 POP JUMP JUMPDEST PUSH1 0x0 PUSH2 0x8C4 DUP3 PUSH2 0x862 JUMP JUMPDEST PUSH2 0x8CE DUP2 DUP6 PUSH2 0x86D JUMP JUMPDEST SWAP4 POP PUSH2 0x8DE DUP2 DUP6 PUSH1 0x20 DUP7 ADD PUSH2 0x87E JUMP JUMPDEST PUSH2 0x8E7 DUP2 PUSH2 0x8A8 JUMP JUMPDEST DUP5 ADD SWAP2 POP POP SWAP3 SWAP2 POP POP JUMP JUMPDEST PUSH2 0x8FB DUP2 PUSH2 0x714 JUMP JUMPDEST DUP3 MSTORE POP POP JUMP JUMPDEST PUSH1 0x0 PUSH1 0xA0 DUP3 ADD SWAP1 POP DUP2 DUP2 SUB PUSH1 0x0 DUP4 ADD MSTORE PUSH2 0x91B DUP2 DUP9 PUSH2 0x8B9 JUMP JUMPDEST SWAP1 POP PUSH2 0x92A PUSH1 0x20 DUP4 ADD DUP8 PUSH2 0x8F2 JUMP JUMPDEST PUSH2 0x937 PUSH1 0x40 DUP4 ADD DUP7 PUSH2 0x838 JUMP JUMPDEST PUSH2 0x944 PUSH1 0x60 DUP4 ADD DUP6 PUSH2 0x80E JUMP JUMPDEST PUSH2 0x951 PUSH1 0x80 DUP4 ADD DUP5 PUSH2 0x8F2 JUMP JUMPDEST SWAP7 SWAP6 POP POP POP POP POP POP JUMP JUMPDEST PUSH1 0x0 DUP1 REVERT JUMPDEST PUSH1 0x0 DUP1 REVERT JUMPDEST PUSH32 0x4E487B7100000000000000000000000000000000000000000000000000000000 PUSH1 0x0 MSTORE PUSH1 0x41 PUSH1 0x4 MSTORE PUSH1 0x24 PUSH1 0x0 REVERT JUMPDEST PUSH2 0x99D DUP3 PUSH2 0x8A8 JUMP JUMPDEST DUP2 ADD DUP2 DUP2 LT PUSH8 0xFFFFFFFFFFFFFFFF DUP3 GT OR ISZERO PUSH2 0x9BC JUMPI PUSH2 0x9BB PUSH2 0x965 JUMP JUMPDEST JUMPDEST DUP1 PUSH1 0x40 MSTORE POP POP POP JUMP JUMPDEST PUSH1 0x0 PUSH2 0x9CF PUSH2 0x700 JUMP JUMPDEST SWAP1 POP PUSH2 0x9DB DUP3 DUP3 PUSH2 0x994 JUMP JUMPDEST SWAP2 SWAP1 POP JUMP JUMPDEST PUSH1 0x0 PUSH8 0xFFFFFFFFFFFFFFFF DUP3 GT ISZERO PUSH2 0x9FB JUMPI PUSH2 0x9FA PUSH2 0x965 JUMP JUMPDEST JUMPDEST PUSH2 0xA04 DUP3 PUSH2 0x8A8 JUMP JUMPDEST SWAP1 POP PUSH1 0x20 DUP2 ADD SWAP1 POP SWAP2 SWAP1 POP JUMP JUMPDEST DUP3 DUP2 DUP4 CALLDATACOPY PUSH1 0x0 DUP4 DUP4 ADD MSTORE POP POP POP JUMP JUMPDEST PUSH1 0x0 PUSH2 0xA33 PUSH2 0xA2E DUP5 PUSH2 0x9E0 JUMP JUMPDEST PUSH2 0x9C5 JUMP JUMPDEST SWAP1 POP DUP3 DUP2 MSTORE PUSH1 0x20 DUP2 ADD DUP5 DUP5 DUP5 ADD GT ISZERO PUSH2 0xA4F JUMPI PUSH2 0xA4E PUSH2 0x960 JUMP JUMPDEST JUMPDEST PUSH2 0xA5A DUP5 DUP3 DUP6 PUSH2 0xA11 JUMP JUMPDEST POP SWAP4 SWAP3 POP POP POP JUMP JUMPDEST PUSH1 0x0 DUP3 PUSH1 0x1F DUP4 ADD SLT PUSH2 0xA77 JUMPI PUSH2 0xA76 PUSH2 0x95B JUMP JUMPDEST JUMPDEST DUP2 CALLDATALOAD PUSH2 0xA87 DUP5 DUP3 PUSH1 0x20 DUP7 ADD PUSH2 0xA20 JUMP JUMPDEST SWAP2 POP POP SWAP3 SWAP2 POP POP JUMP JUMPDEST PUSH1 0x0 DUP1 PUSH1 0x0 PUSH1 0x60 DUP5 DUP7 SUB SLT ISZERO PUSH2 0xAA9 JUMPI PUSH2 0xAA8 PUSH2 0x70A JUMP JUMPDEST JUMPDEST PUSH1 0x0 DUP5 ADD CALLDATALOAD PUSH8 0xFFFFFFFFFFFFFFFF DUP2 GT ISZERO PUSH2 0xAC7 JUMPI PUSH2 0xAC6 PUSH2 0x70F JUMP JUMPDEST JUMPDEST PUSH2 0xAD3 DUP7 DUP3 DUP8 ADD PUSH2 0xA62 JUMP JUMPDEST SWAP4 POP POP PUSH1 0x20 PUSH2 0xAE4 DUP7 DUP3 DUP8 ADD PUSH2 0x735 JUMP JUMPDEST SWAP3 POP POP PUSH1 0x40 PUSH2 0xAF5 DUP7 DUP3 DUP8 ADD PUSH2 0x7C0 JUMP JUMPDEST SWAP2 POP POP SWAP3 POP SWAP3 POP SWAP3 JUMP JUMPDEST PUSH1 0x0 PUSH1 0x20 DUP3 ADD SWAP1 POP PUSH2 0xB14 PUSH1 0x0 DUP4 ADD DUP5 PUSH2 0x8F2 JUMP JUMPDEST SWAP3 SWAP2 POP POP JUMP JUMPDEST PUSH32 0x4E487B7100000000000000000000000000000000000000000000000000000000 PUSH1 0x0 MSTORE PUSH1 0x12 PUSH1 0x4 MSTORE PUSH1 0x24 PUSH1 0x0 REVERT JUMPDEST PUSH32 0x4E487B7100000000000000000000000000000000000000000000000000000000 PUSH1 0x0 MSTORE PUSH1 0x11 PUSH1 0x4 MSTORE PUSH1 0x24 PUSH1 0x0 REVERT JUMPDEST PUSH1 0x0 PUSH2 0xB83 DUP3 PUSH2 0x714 JUMP JUMPDEST SWAP2 POP PUSH2 0xB8E DUP4 PUSH2 0x714 JUMP JUMPDEST SWAP3 POP DUP3 PUSH2 0xB9E JUMPI PUSH2 0xB9D PUSH2 0xB1A JUMP JUMPDEST JUMPDEST DUP3 DUP3 DIV SWAP1 POP SWAP3 SWAP2 POP POP JUMP JUMPDEST PUSH32 0x4E487B7100000000000000000000000000000000000000000000000000000000 PUSH1 0x0 MSTORE PUSH1 0x22 PUSH1 0x4 MSTORE PUSH1 0x24 PUSH1 0x0 REVERT JUMPDEST PUSH1 0x0 PUSH1 0x2 DUP3 DIV SWAP1 POP PUSH1 0x1 DUP3 AND DUP1 PUSH2 0xBF0 JUMPI PUSH1 0x7F DUP3 AND SWAP2 POP JUMPDEST PUSH1 0x20 DUP3 LT DUP2 SUB PUSH2 0xC03 JUMPI PUSH2 0xC02 PUSH2 0xBA9 JUMP JUMPDEST JUMPDEST POP SWAP2 SWAP1 POP JUMP JUMPDEST PUSH1 0x0 PUSH2 0xC14 DUP3 PUSH2 0x714 JUMP JUMPDEST SWAP2 POP PUSH32 0xFFFFFFFFFFFFFFFFFFFFFFFFFFFFFFFFFFFFFFFFFFFFFFFFFFFFFFFFFFFFFFFF DUP3 SUB PUSH2 0xC46 JUMPI PUSH2 0xC45 PUSH2 0xB49 JUMP JUMPDEST JUMPDEST PUSH1 0x1 DUP3 ADD SWAP1 POP SWAP2 SWAP1 POP JUMP JUMPDEST PUSH1 0x0 DUP2 SWAP1 POP DUP2 PUSH1 0x0 MSTORE PUSH1 0x20 PUSH1 0x0 KECCAK256 SWAP1 POP SWAP2 SWAP1 POP JUMP JUMPDEST PUSH1 0x0 PUSH1 0x20 PUSH1 0x1F DUP4 ADD DIV SWAP1 POP SWAP2 SWAP1 POP JUMP JUMPDEST PUSH1 0x0 DUP3 DUP3 SHL SWAP1 POP SWAP3 SWAP2 POP POP JUMP JUMPDEST PUSH1 0x0 PUSH1 0x8 DUP4 MUL PUSH2 0xCB3 PUSH32 0xFFFFFFFFFFFFFFFFFFFFFFFFFFFFFFFFFFFFFFFFFFFFFFFFFFFFFFFFFFFFFFFF DUP3 PUSH2 0xC76 JUMP JUMPDEST PUSH2 0xCBD DUP7 DUP4 PUSH2 0xC76 JUMP JUMPDEST SWAP6 POP DUP1 NOT DUP5 AND SWAP4 POP DUP1 DUP7 AND DUP5 OR SWAP3 POP POP POP SWAP4 SWAP3 POP POP POP JUMP JUMPDEST PUSH1 0x0 DUP2 SWAP1 POP SWAP2 SWAP1 POP JUMP JUMPDEST PUSH1 0x0 PUSH2 0xCFA PUSH2 0xCF5 PUSH2 0xCF0 DUP5 PUSH2 0x714 JUMP JUMPDEST PUSH2 0xCD5 JUMP JUMPDEST PUSH2 0x714 JUMP JUMPDEST SWAP1 POP SWAP2 SWAP1 POP JUMP JUMPDEST PUSH1 0x0 DUP2 SWAP1 POP SWAP2 SWAP1 POP JUMP JUMPDEST PUSH2 0xD14 DUP4 PUSH2 0xCDF JUMP JUMPDEST PUSH2 0xD28 PUSH2 0xD20 DUP3 PUSH2 0xD01 JUMP JUMPDEST DUP5 DUP5 SLOAD PUSH2 0xC83 JUMP JUMPDEST DUP3 SSTORE POP POP POP POP JUMP JUMPDEST PUSH1 0x0 SWAP1 JUMP JUMPDEST PUSH2 0xD3D PUSH2 0xD30 JUMP JUMPDEST PUSH2 0xD48 DUP2 DUP5 DUP5 PUSH2 0xD0B JUMP JUMPDEST POP POP POP JUMP JUMPDEST JUMPDEST DUP2 DUP2 LT ISZERO PUSH2 0xD6C JUMPI PUSH2 0xD61 PUSH1 0x0 DUP3 PUSH2 0xD35 JUMP JUMPDEST PUSH1 0x1 DUP2 ADD SWAP1 POP PUSH2 0xD4E JUMP JUMPDEST POP POP JUMP JUMPDEST PUSH1 0x1F DUP3 GT ISZERO PUSH2 0xDB1 JUMPI PUSH2 0xD82 DUP2 PUSH2 0xC51 JUMP JUMPDEST PUSH2 0xD8B DUP5 PUSH2 0xC66 JUMP JUMPDEST DUP2 ADD PUSH1 0x20 DUP6 LT ISZERO PUSH2 0xD9A JUMPI DUP2 SWAP1 POP JUMPDEST PUSH2 0xDAE PUSH2 0xDA6 DUP6 PUSH2 0xC66 JUMP JUMPDEST DUP4 ADD DUP3 PUSH2 0xD4D JUMP JUMPDEST POP POP JUMPDEST POP POP POP JUMP JUMPDEST PUSH1 0x0 DUP3 DUP3 SHR SWAP1 POP SWAP3 SWAP2 POP POP JUMP JUMPDEST PUSH1 0x0 PUSH2 0xDD4 PUSH1 0x0 NOT DUP5 PUSH1 0x8 MUL PUSH2 0xDB6 JUMP JUMPDEST NOT DUP1 DUP4 AND SWAP2 POP POP SWAP3 SWAP2 POP POP JUMP JUMPDEST PUSH1 0x0 PUSH2 0xDED DUP4 DUP4 PUSH2 0xDC3 JUMP JUMPDEST SWAP2 POP DUP3 PUSH1 0x2 MUL DUP3 OR SWAP1 POP SWAP3 SWAP2 POP POP JUMP JUMPDEST PUSH2 0xE06 DUP3 PUSH2 0x862 JUMP JUMPDEST PUSH8 0xFFFFFFFFFFFFFFFF DUP2 GT ISZERO PUSH2 0xE1F JUMPI PUSH2 0xE1E PUSH2 0x965 JUMP JUMPDEST JUMPDEST PUSH2 0xE29 DUP3 SLOAD PUSH2 0xBD8 JUMP JUMPDEST PUSH2 0xE34 DUP3 DUP3 DUP6 PUSH2 0xD70 JUMP JUMPDEST PUSH1 0x0 PUSH1 0x20 SWAP1 POP PUSH1 0x1F DUP4 GT PUSH1 0x1 DUP2 EQ PUSH2 0xE67 JUMPI PUSH1 0x0 DUP5 ISZERO PUSH2 0xE55 JUMPI DUP3 DUP8 ADD MLOAD SWAP1 POP JUMPDEST PUSH2 0xE5F DUP6 DUP3 PUSH2 0xDE1 JUMP JUMPDEST DUP7 SSTORE POP PUSH2 0xEC7 JUMP JUMPDEST PUSH1 0x1F NOT DUP5 AND PUSH2 0xE75 DUP7 PUSH2 0xC51 JUMP JUMPDEST PUSH1 0x0 JUMPDEST DUP3 DUP2 LT ISZERO PUSH2 0xE9D JUMPI DUP5 DUP10 ADD MLOAD DUP3 SSTORE PUSH1 0x1 DUP3 ADD SWAP2 POP PUSH1 0x20 DUP6 ADD SWAP5 POP PUSH1 0x20 DUP2 ADD SWAP1 POP PUSH2 0xE78 JUMP JUMPDEST DUP7 DUP4 LT ISZERO PUSH2 0xEBA JUMPI DUP5 DUP10 ADD MLOAD PUSH2 0xEB6 PUSH1 0x1F DUP10 AND DUP3 PUSH2 0xDC3 JUMP JUMPDEST DUP4 SSTORE POP JUMPDEST PUSH1 0x1 PUSH1 0x2 DUP9 MUL ADD DUP9 SSTORE POP POP POP JUMPDEST POP POP POP POP POP POP JUMP INVALID LOG2 PUSH5 0x6970667358 0x22 SLT KECCAK256 SWAP9 SWAP9 CHAINID 0xEF BASEFEE PC PUSH14 0xCBF9559EF64F1BC6A82CAB2DDEBD 0xD1 DUP2 0x5E PUSH10 0xA10FACEFD29DF164736F PUSH13 0x63430008110033000000000000 "
				},
				"gasEstimates": {
					"creation": {
						"codeDepositCost": "769000",
						"executionCost": "infinite",
						"totalCost": "infinite"
					},
					"external": {
						"approveRequest(uint256)": "infinite",
						"approvers(address)": "2868",
						"contribute()": "50999",
						"createRequest(string,uint256,address)": "infinite",
						"finalizeRequest(uint256)": "infinite",
						"manager()": "2556",
						"minimumContribution()": "2451",
						"requests(uint256)": "infinite"
					}
				},
				"methodIdentifiers": {
					"approveRequest(uint256)": "d7d1bbdb",
					"approvers(address)": "0a144391",
					"contribute()": "d7bb99ba",
					"createRequest(string,uint256,address)": "8a9cfd55",
					"finalizeRequest(uint256)": "03441006",
					"manager()": "481c6a75",
					"minimumContribution()": "937e09b1",
					"requests(uint256)": "81d12c58"
				}
			},
			"storageLayout": {
				"storage": [
					{
						"astId": 56,
						"contract": "ethereum/contracts/Campaign.sol:Campaign",
						"label": "manager",
						"offset": 0,
						"slot": "0",
						"type": "t_address"
					},
					{
						"astId": 58,
						"contract": "ethereum/contracts/Campaign.sol:Campaign",
						"label": "minimumContribution",
						"offset": 0,
						"slot": "1",
						"type": "t_uint256"
					},
					{
						"astId": 62,
						"contract": "ethereum/contracts/Campaign.sol:Campaign",
						"label": "approvers",
						"offset": 0,
						"slot": "2",
						"type": "t_mapping(t_address,t_bool)"
					},
					{
						"astId": 65,
						"contract": "ethereum/contracts/Campaign.sol:Campaign",
						"label": "requestNum",
						"offset": 0,
						"slot": "3",
						"type": "t_uint256"
					},
					{
						"astId": 70,
						"contract": "ethereum/contracts/Campaign.sol:Campaign",
						"label": "requests",
						"offset": 0,
						"slot": "4",
						"type": "t_mapping(t_uint256,t_struct(Request)54_storage)"
					},
					{
						"astId": 73,
						"contract": "ethereum/contracts/Campaign.sol:Campaign",
						"label": "totalApproversCount",
						"offset": 0,
						"slot": "5",
						"type": "t_uint256"
					}
				],
				"types": {
					"t_address": {
						"encoding": "inplace",
						"label": "address",
						"numberOfBytes": "20"
					},
					"t_bool": {
						"encoding": "inplace",
						"label": "bool",
						"numberOfBytes": "1"
					},
					"t_mapping(t_address,t_bool)": {
						"encoding": "mapping",
						"key": "t_address",
						"label": "mapping(address => bool)",
						"numberOfBytes": "32",
						"value": "t_bool"
					},
					"t_mapping(t_uint256,t_struct(Request)54_storage)": {
						"encoding": "mapping",
						"key": "t_uint256",
						"label": "mapping(uint256 => struct Campaign.Request)",
						"numberOfBytes": "32",
						"value": "t_struct(Request)54_storage"
					},
					"t_string_storage": {
						"encoding": "bytes",
						"label": "string",
						"numberOfBytes": "32"
					},
					"t_struct(Request)54_storage": {
						"encoding": "inplace",
						"label": "struct Campaign.Request",
						"members": [
							{
								"astId": 41,
								"contract": "ethereum/contracts/Campaign.sol:Campaign",
								"label": "description",
								"offset": 0,
								"slot": "0",
								"type": "t_string_storage"
							},
							{
								"astId": 43,
								"contract": "ethereum/contracts/Campaign.sol:Campaign",
								"label": "value",
								"offset": 0,
								"slot": "1",
								"type": "t_uint256"
							},
							{
								"astId": 45,
								"contract": "ethereum/contracts/Campaign.sol:Campaign",
								"label": "recipient",
								"offset": 0,
								"slot": "2",
								"type": "t_address"
							},
							{
								"astId": 47,
								"contract": "ethereum/contracts/Campaign.sol:Campaign",
								"label": "complete",
								"offset": 20,
								"slot": "2",
								"type": "t_bool"
							},
							{
								"astId": 49,
								"contract": "ethereum/contracts/Campaign.sol:Campaign",
								"label": "approvalCount",
								"offset": 0,
								"slot": "3",
								"type": "t_uint256"
							},
							{
								"astId": 53,
								"contract": "ethereum/contracts/Campaign.sol:Campaign",
								"label": "approvals",
								"offset": 0,
								"slot": "4",
								"type": "t_mapping(t_address,t_bool)"
							}
						],
						"numberOfBytes": "160"
					},
					"t_uint256": {
						"encoding": "inplace",
						"label": "uint256",
						"numberOfBytes": "32"
					}
				}
			},
			"userdoc": {
				"kind": "user",
				"methods": {},
				"version": 1
			}
		}
	}
}